:10000000022E60E49005B6F0222222022433EFB4DF
:10001000010443BC802253BC7F222202002275C10E
:0A0020003F22320229CE75C13F22B3
:10002B00023B4BE4120474900001020486020000B0
:07003B00022C9853CEBF22F6
:10004300022904E4FF0F123961EF540125E0FFC0D8
:0F00530007E4FF123961EF5401FED0E04EFF22A7
:10006300023B55EC4D6011E8497017ED33EC330456
:10007300600DE4FCFFFEFD22E933E8330470F8026F
:1000830003231202EE58046009E4CC2481500628AD
:10009300500902032D28400302032AC0E0EB4A70F3
:1000A30044B98006D0E0FB020319EF4E701CBD80FB
:1000B30008EBFFEAFEE9FD80EBE98DF0A4FEE5F035
:1000C30002014FE9CDF9EAFEEBFFEF89F0A4FCE56D
:1000D300F0CE89F0A42EFFE435F0CD89F0A42DFEF7
:1000E300E435F08067EF4E7005BD80D780C3EF8B9A
:1000F300F0A4ACF0EE8BF0A42CFCE435F0F8EF8A1E
:10010300F0A42CE5F038FCE433CB8DF0A42CFCE513
:10011300F03BF8EE8AF0A42CFCE5F038F8E433CF9A
:1001230089F0A42CFCE5F038CF3400CE89F0A42F5D
:10013300FFE5F03EFEE433C98DF0A42EFEE5F03971
:10014300CD8AF0A42FFFE5F03EFEE43DFD33D0E081
:10015300FB50070BBB000F02032DEC2CFCEF33FF0E
:10016300EE33FEED33FD02030502032DEC5D046067
:1001730005E8590470030203231202EE580460F6E3
:10018300EC4860F2EC7004FDFEFF22C860DB2481C2
:10019300C85009C3986002500602032A9850CAF552
:1001A30082E9294B4A7005AB8202031975F0007C82
:1001B3001A7880C3EF9BEE9AED99400DC3EF9BFF36
:1001C300EE9AFEED99FDE842F0DC23ACF0D0E0FFBF
:1001D300D0E0FED0E0FDAB8220E7101BEB60BAEC71
:1001E3002CFCEF33FFEE33FEED33FD020305E80392
:1001F300F830E705C0F075F000EF2FFFEE33FEEDAA
:1002030033FD40B830E7C280AA74F8CC6480CCC810
:100213006480C8F582046043C3EB9FF5F0EA9E4215
:10022300F0E99D42F0E89C45F060305018E5825FAC
:10023300FFE582F42B5582FB50210ABA001D09B950
:100243000019088016E5825BFBE582F42F5582FFD7
:1002530050090EBE00050DBD00010CC3EB9FF5F068
:10026300EA9E42F0E99D42F0E89C45F06007CC48E5
:1002730020E701B3EC2275F020800E75F0108005A5
:1002830075F0087D007E007F003392D530D50312D0
:1002930006ABEC334010EF33FFEE33FEED33FDECF2
:1002A30033FCD5F0ED22E5F0247EA2D513CC92E702
:1002B300CDCEFF22EDD2E7CD33EC3392D52481406E
:1002C30006E4FFFEFDFC22FCE4CFCECDCC24E050BF
:1002D3001174FF80EDC3CC13CCCD13CDCE13CECF91
:1002E30013CF0470F030D5DE0206ABE9D2E7C93391
:1002F300E833F892D5EDD2E7CD33EC33FC5002B2BC
:10030300D522EC30E7100FBF000C0EBE00080DBD68
:1003130000040BEB6014A2D5EB13FCED92E7FD2276
:1003230074FFFCFDFEFF22E480F8A2D574FF13FCEA
:100333007D80E480EFE709F608DFFA8046E709F2FB
:1003430008DFFA803E88828C83E709F0A3DFFA8016
:1003530032E309F608DFFA8078E309F208DFFA806E
:100363007088828C83E309F0A3DFFA806489828A30
:1003730083E0A3F608DFFA805889828A83E0A3F238
:1003830008DFFA804C80D280FA80C680D4806980EE
:10039300F28033801080A680EA809A80A880DA8079
:1003A300E280CA803389828A83ECFAE493A3C8C5C6
:1003B30082C8CCC583CCF0A3C8C582C8CCC583CCC6
:1003C300DFE9DEE7800D89828A83E493A3F608DF01
:1003D300F9ECFAA9F0EDFB2289828A83ECFAE0A317
:1003E300C8C582C8CCC583CCF0A3C8C582C8CCC558
:1003F30083CCDFEADEE880DB89828A83E493A3F29D
:1004030008DFF980CC88F0EF60010E4E60C388F0FE
:10041300ED2402B4040050B9F582EB2402B40400C5
:1004230050AF232345822390038873BB010689823F
:100433008A83E0225002E722BBFE02E32289828AFA
:1004430083E49322BB010CE58229F582E5833AF527
:1004530083E0225006E92582F8E622BBFE06E92561
:1004630082F8E222E58229F582E5833AF583E49373
:1004730022BB010689828A83F0225002F722BBFE47
:1004830001F322F8BB010DE58229F582E5833AF5F4
:1004930083E8F0225006E92582C8F622BBFE05E96F
:1004A3002582C8F222BC000BBE0029EF8DF084FF29
:1004B300ADF022E4CCF875F008EF2FFFEE33FEEC3D
:1004C30033FCEE9DEC984005FCEE9DFE0FD5F0E964
:1004D300E4CEFD22EDF8F5F0EE8420D21CFEADF063
:1004E30075F008EF2FFFED33FD4007985006D5F068
:1004F300F222C398FD0FD5F0EA22C5F0F8A3E02855
:10050300F0C5F0F8E582158270021583E038F02219
:10051300A3F8E0C5F025F0F0E5821582700215839B
:10052300E0C838F0E822BB0110E58229F582E583B3
:100533003AF583E0F5F0A3E0225009E92582F88635
:10054300F008E622BBFE0AE92582F8E2F5F008E2AC
:1005530022E5832AF583E993F5F0A3E99322F8BB17
:100563000111E58229F582E5833AF583E8F0E5F0A8
:10057300A3F0225009E92582C8F608A6F022BBFEA3
:1005830009E92582C8F2E5F008F222E88FF0A4CC4D
:100593008BF0A42CFCE98EF0A42CFC8AF0EDA42CA7
:1005A300FCEA8EF0A4CDA8F08BF0A42DCC3825F076
:1005B300FDE98FF0A42CCD35F0FCEB8EF0A4FEA961
:1005C300F0EB8FF0A4CFC5F02ECD39FEE43CFCEA6E
:1005D300A42DCE35F0FDE43CFC2275F008758200B5
:1005E300EF2FFFEE33FECD33CDCC33CCC58233C5F5
:1005F300829BED9AEC99E58298400CF582EE9BFE86
:10060300ED9AFDEC99FC0FD5F0D6E4CEFBE4CDFAE0
:10061300E4CCF9A88222B800C1B90059BA002DEC84
:100623008BF084CFCECDFCE5F0CBF97818EF2FFF1C
:10063300EE33FEED33FDEC33FCEB33FB10D70399C4
:100643004004EB99FB0FD8E5E4F9FA227818EF2F71
:10065300FFEE33FEED33FDEC33FCC933C910D70590
:100663009BE99A4007EC9BFCE99AF90FD8E0E4C9AF
:10067300FAE4CCFB2275F010EF2FFFEE33FEED33DF
:10068300FDCC33CCC833C810D7079BEC9AE899400C
:100693000AED9BFDEC9AFCE899F80FD5F0DAE4CD6E
:1006A300FBE4CCFAE4C8F922C3E49FFFE49EFEE432
:1006B3009DFDE49CFC22EB9FF5F0EA9E42F0E99D50
:1006C30042F0E89C45F022E8600FECC313FCED1305
:1006D300FDEE13FEEF13FFD8F122E8600FEFC333F3
:1006E300FFEE33FEED33FDEC33FCD8F122BB010DFD
:1006F300E58229F582E5833AF5830207F85007E995
:100703002582F80207EBBBFE07E92582F8020804FD
:10071300E58229F582E5833AF5830208117401FF26
:100723003395E0FEFDFCA3A3A3E0CF2FF0E58215F4
:100733008270021583E0CE3EF0E5821582700215C9
:1007430083E0CD3DF0E582158270021583E0CC3C59
:10075300F022ECF0A3EDF0A3EEF0A3EFF022A882D9
:100763008583F0D083D08212077812077812077836
:10077300120778E473E493A3C583C5F0C583C8C5A2
:1007830082C8F0A3C583C5F0C583C8C582C822D07B
:1007930083D082F8E4937012740193700DA3A39332
:1007A300F8740193F5828883E473740293B5F006B9
:1007B3007403936860E9A3A3A3A380D8EF4E6012E8
:1007C300EF60010EEDBB010B89828A83F0A3DFFC8E
:1007D300DEFA2289F05007F709DFFCA9F022BBFEFD
:1007E300FCF309DFFCA9F022E6FB08E6F908E6FAC8
:1007F30008E6CBF822E0F8A3E0F9A3E0FAA3E0FBD4
:1008030022E2FB08E2F908E2FA08E2CBF822E493D9
:10081300F8740193F9740293FA740393FB22900220
:1008230031EBF0A3EAF0A3E9F0900230EFF06401BA
:100833006003020A3390000004F0E4A3F0A3F0A3E2
:10084300F0A3F0A3F0A3F0900234F0900234E0FFA1
:10085300C394805014740E2FF582E43400F583E4BE
:10086300F0900234E004F080E2E4900234F090026D
:1008730034E0FFC394805014748E2FF582E4340067
:10088300F583E4F0900234E004F080E2900231E07A
:10089300FBA3E0FAA3E0F912042ED394C040037F34
:1008A300022290000A120447B40104D2BC8002C29F
:1008B300BC12042EFFE598543F4FF598EF64C060D7
:1008C30008EF644060030209AD9000021206F07F56
:1008D300007E607D547C0012061990023512075584
:1008E300E4FFFE7D01FC900235E0F8A3E0F9A3E00C
:1008F300FAA3E0FBC31206B940037F02229002353C
:10090300E0F8A3E0F9A3E0FAA3E0FBC3E49BFFE470
:100913009AFE740199FDE498FC90023512075590F4
:100923000231E0FBA3E0FAA3E0F9900001120447CF
:10093300FB64017038C28E538EFE5389BF5389CF37
:10094300438E40900235E0FCA3E0FDA3E0FEA3E06C
:10095300FF78081206CA8F8D900235A3A3A3E0F592
:100963008BC2AB5389BF538FFDD28E8076EB64026B
:100973007035538EEF438E01538EF7438E049002EE
:1009830035E0FCA3E0FDA3E0FEA3E0FF7808120638
:10099300CA8FD6900235A3A3A3E0F5D753AFFB5379
:1009A3008EF7438E10803C7F0222900231E0FBA33E
:1009B300E0FAA3E0F912042EFF701390000812046A
:1009C30047B40105438E20801A538EDF8015EFB4A0
:1009D3008011900008120447B40105438780800307
:1009E30053877F900231E0FBA3E0FAA3E0F9900084
:1009F30009120447B40104D2AC8002C2AC900007D0
:100A0300120447B40104D29C8002C29C90000B12D2
:100A1300044754C0FFE5A2543F4FF5A290000C12C7
:100A23000447B4010543971080035397EF7F0022D7
:100A3300900230E064026003020B95900007740299
:100A4300F0E4A3F0A3F0A3F0A3F0A3F0A3F09002CB
:100A530034F0900234E0FFC394805014740E2FF5E9
:100A630082E43401F583E4F0900234E004F080E2A0
:100A7300E4900234F0900234E0FFC3948050147485
:100A83008E2FF582E43401F583E4F0900234E00420
:100A9300F080E2900231E0FBA3E0FAA3E0F9120454
:100AA3002EFF64C06008EF64406003020B559000A2
:100AB3000A120447B4010543B501800353B5FE127E
:100AC300042EB4C005439A808003539A7F9000029A
:100AD3001206F07F007E607D547C0012061990029E
:100AE30035120755E4FFFE7D01FC900235E0F8A3C3
:100AF300E0F9A3E0FAA3E0FBC31206B940037F02C7
:100B030022900235E0F8A3E0F9A3E0FAA3E0FBC3E7
:100B1300E49BFFE49AFE740199FDE498FC9002358E
:100B2300120755538EEF538EF7438E04900235E030
:100B3300FCA3E0FDA3E0FEA3E0FF78081206CA8F42
:100B4300D6900235A3A3A3E0F5D753AFFB438E1092
:100B530080037F0222900231E0FBA3E0FAA3E0F9D5
:100B6300900009120447B4010543AF01800353AF5A
:100B7300FE900007120447B40105439A1080035303
:100B83009AEF90000B1204475401FFE5BA54FE4F4D
:100B9300F5BA22900309EBF0A3EAF0A3E9F0E4909D
:100BA3000312F0A3F078147C037D017BFF7A3B7979
:100BB30058FE7F08120408E490031CF0A3F0781E8B
:100BC3007C037D017BFF7A3B7960FE7F0A12040878
:100BD300E4900328F0A3F0A374C0F0A37401F0E43D
:100BE300A3F0A3F0A3F0A3F0900309E0FBA3E0FAC2
:100BF300A3E0F990000A120447FF90000B12044788
:100C030090031DF07B017A0379141238A0E490035A
:100C13001CF090031CE0FFC39408505474142FF588
:100C230082E43403F583E0B4013E90031CE004FE48
:100C3300900329E0FD04F0741E2DF582E43403F5DE
:100C430083EEF074732FF582E43404F583E0FF90B0
:100C53000329E0FE04F0741E2EF582E43403F583C9
:100C6300EFF0900328E004F090031CE004F080A26E
:100C730090031DE064016003020CFE9004DF04F0A6
:100C8300E490031CF090031CE0FFC39404506C90A9
:100C930005B4E0B40F17EF25E025E0242FF582E437
:100CA3003404F5831207610000000F801890031CC1
:100CB300E025E025E0242FF582E43404F5831207D0
:100CC300610000003C90031CE0FB25E025E0248B41
:100CD300F582E43404F58312076100000000EB257C
:100CE300E025E0249BF582E43404F58312076100D8
:100CF30000000090031CE004F0808A900329E024A4
:100D030005FEE43390032CF0A3CEF090030CE0FB3C
:100D1300A3E0FAA3E0F9746812047490032CE0FED4
:100D2300A3E0FD90030CE0FBA3E0FAA3E0F990003D
:100D330001ED120486EE900002120486900309E08E
:100D4300FBA3E0FAA3E0F9900003120529E5F0FF05
:100D530090030CE0FBA3E0FAA3E0F9900003EF1289
:100D63000486900309E0FBA3E0FAA3E0F9900003F3
:100D7300120529FF90030CE0FBA3E0FAA3E0F9902E
:100D83000004EF1204869000057468120486900331
:100D93002AE0FCA3E0FDEC900006120486ED90002F
:100DA30007120486900309E0FBA3E0FAA3E0F9909D
:100DB3000005120529E5F0FF90030CE0FBA3E0FA20
:100DC300A3E0F9900008EF120486900309E0FBA367
:100DD300E0FAA3E0F9900005120529FF90030CE067
:100DE300FBA3E0FAA3E0F9900009EF120486900355
:100DF30028E090000A120486E490031CF090032973
:100E0300E0FF90031CE0FEC39F502E741E2EF5825C
:100E1300E43403F583E0FFEE240BFDE433FC90039D
:100E23000CE0FBA3E0FAA3E0F98D828C83EF1204BC
:100E33008690031CE004F080C490032CA3E02405F7
:100E4300900312F090032CE0FEA3E0FF90030CE06C
:100E5300FBA3E0FAA3E02406F9E43AFA78147C034E
:100E63007D011204087B017A03791490032CA3E01B
:100E7300FD12348CEFF4FF900312E0FE2401FDE435
:100E830033FC90030CE0FBA3E0FAA3E0F98D828C22
:100E930083EF120486EEF582758300A3A374161202
:100EA300048690032CA3E02408FF90030FE0FBA328
:100EB300E0FAA3E0F9EF020474900224EFF0E4A354
:100EC300F0A3F0A31207610000000090022B1207A9
:100ED3006100000000123A6C900225EFF0900224AA
:100EE300E0FF2473F582E43404F583E0B4010812CF
:100EF30039DD7FBB0239DD7F111239DD900224E039
:100F0300FF1239DD900224E025E025E0248BF582F1
:100F1300E43404F583E0FCA3E0FDA3E0FEA3E0FFDB
:100F2300E47B5FFAF9F812058EE47B64FAF9F812B0
:100F33000619900224E025E025E024ABF582E43491
:100F430004F58312075512334E900227120755906A
:100F53000225E075F00AA42446FFE435F0FEE4FC24
:100F6300FD900227E0F8A3E0F9A3E0FAA3E0FB1267
:100F7300058EE47B64FAF9F8120619900224E0FB6B
:100F830025E025E0249BF582E43404F5831207551C
:100F9300EB25E025E0248BF582E43404F583E0FCC3
:100FA300A3E0FDA3E0FEA3E0FFEB25E025E0249B07
:100FB300F582E43404F583E0F8A3E0F9A3E0FAA3AF
:100FC300E0FBC31206B94068900224E0FB25E0254C
:100FD300E0249BF582E43404F583E0FCA3E0FDA365
:100FE300E0FEA3E0FFEB25E025E0248BF582E4346B
:100FF30004F5831207559005B4E0900224B40F184A
:10100300E025E025E02453F582E43404F583120758
:10101300610000000A0210D3E025E025E02453F527
:1010230082E43404F5831207610000003C0210D30C
:10103300900224E0FF25E025E024ABF582E43404AC
:10104300F583E0F8A3E0F9A3E0FAA3E0FBEF25E0E2
:1010530025E0249BF582E43404F583E0FCA3E0FD62
:10106300A3E0FEA3E0FFC31206B95074900224E08C
:10107300FB25E025E0249BF582E43404F583E0FCC2
:10108300A3E0FDA3E0FEA3E0FFEB25E025E0248B36
:10109300F582E43404F5831207559005B4E0900219
:1010A30024B40F17E025E025E02453F582E434044B
:1010B300F5831207610000000A8015E025E025E0B2
:1010C3002453F582E43404F5831207610000003CE5
:1010D300900224E02473F582E43404F583E4F022DF
:1010E300900224E0FF25E025E0249BF582E434040C
:1010F300F583E0F8A3E0F9A3E0FAA3E0FBEF25E032
:1011030025E024ABF582E43404F583E0FCA3E0FDA1
:10111300A3E0FEA3E0C39BFFEE9AFEED99FDEC98DE
:10112300FCE4FB7A05F9F8C31206B950727F551235
:1011330039DD900224E025E025E02453F582E434F0
:1011430004F583E0FCA3E0FDA3E0FEA3E0FFE4FBE2
:10115300FAF9F8C31206B970469005B4E090022478
:10116300B40F17E025E025E02453F582E43404F5B9
:10117300831207610000000A8015E025E025E024C2
:1011830053F582E43404F5831207610000003C90B8
:101193000224E02473F582E43404F5837401F0221D
:1011A3009004E0EFF0E4A3F0A3F078E37C047D0186
:1011B3007BFF7A3C7949FE7F031204089004E61210
:1011C3000761000000009004EA12076100000000BC
:1011D3009004EE1207610000000078F27C047D01A8
:1011E3007BFF7A3C794C7E007F2812040812334E31
:1011F3009004EE1207559004E0E075F003A424D3A5
:10120300F9740435F0FA7B0112386C9004E1EFF0C5
:10121300701D9004E0E075F003A424D3F974043541
:10122300F0FA7B019004EEA3A3A3E0FD12317390C7
:1012330004E0E075F003A424D3F9740435F0FA7BD9
:101243000112386C9004E1EFF06401600302139320
:101253009004E0E075F003A424D3F9740435F0FAA4
:101263007B01C003900595EBF0A37404F0A374F223
:10127300F0D0031233BAE49004E2F09004E2E0FF0A
:10128300C3940A50419004E6E0F8A3E0F9A3E0FA1E
:10129300A3E0FBEF25E025E024F2F582E43404F536
:1012A30083E0FCA3E0FDA3E0FEA3E0FFEB2FFFEA56
:1012B3003EFEE93DFDE83CFC9004E6120755900430
:1012C300E2E004F080B5E47B0AFAF9F89004E6E082
:1012D300FCA3E0FDA3E0FEA3E0FF1206199004EADD
:1012E300120755E47F5FFEFDFC9004EAE0F8A3E0FB
:1012F300F9A3E0FAA3E0FB12058EE47B64FAF9F8A4
:101303001206199004EA1207559004EAE0FCA3E0E0
:10131300FDA3E0FEA3E0FFA3E0F8A3E0F9A3E0FA56
:10132300A3E0FBC31206B9505290051AE0FCA3E0F8
:10133300FDA3E0FEA3E0FF78101206CA9004E3EFDA
:10134300F090051AE0FCA3E0FDA3E0FEA3E0FF7824
:10135300081206CA9004E4EFF090051AE0FCA3E03B
:10136300FDA3E0FEA3E0FFE49004E5EFF09004E0CA
:10137300E0FF7B017A0479E30230799004E0E075C1
:10138300F003A424D3F9740435F0FA7B011232DAA2
:1013930022E4900212F0F0900212E0FFC3940440A2
:1013A30003021539EF25E025E0243FF582E43404F8
:1013B300F583E0FCA3E0FDA3E0FEA3E0FFE4FBFA7A
:1013C300F9F8C31206B9503C900212E0FB25E02560
:1013D300E0243FF582E43404F583E0FCA3E0FDA3BD
:1013E300E0FEA3E024FFFFEE34FFFEED34FFFDEC4F
:1013F30034FFFCEB25E025E0243FF582E43404F5DB
:1014030083120755900212E025E025E02453F5826C
:10141300E43404F583E0FCA3E0FDA3E0FEA3E0FFD6
:10142300E4FBFAF9F8C31206B9503C900212E0FB50
:1014330025E025E02453F582E43404F583E0FCA39E
:10144300E0FDA3E0FEA3E024FFFFEE34FFFEED3456
:10145300FFFDEC34FFFCEB25E025E02453F582E4AB
:101463003404F583120755900212E025E025E024A9
:1014730063F582E43404F583E0FCA3E0FDA3E0FE1E
:10148300A3E0FFE4FBFAF9F8C31206B9503C90025B
:1014930012E0FB25E025E02463F582E43404F583C0
:1014A300E0FCA3E0FDA3E0FEA3E024FFFFEE34FF96
:1014B300FEED34FFFDEC34FFFCEB25E025E0246377
:1014C300F582E43404F583120755900212E025E017
:1014D30025E0242FF582E43404F583E0FCA3E0FD4A
:1014E300A3E0FEA3E0FFE4FBFAF9F8C31206B95048
:1014F3003C900212E0FB25E025E0242FF582E43442
:1015030004F583E0FCA3E0FDA3E0FEA3E024FFFFDA
:10151300EE34FFFEED34FFFDEC34FFFCEB25E0255C
:10152300E0242FF582E43404F58312075590021268
:10153300E004F002139AE4FFFEFDFC90044FE0F890
:10154300A3E0F9A3E0FAA3E0FBD31206B94022908B
:10155300044FE0FCA3E0FDA3E0FEA3E024FFFFEEC5
:1015630034FFFEED34FFFDEC34FFFC90044F120713
:101573005522EFD3940540037F012212042EFED39C
:10158300940340037F0222EF7041EE700B90000141
:10159300120447F45293529412042EB4010B900098
:1015A300011204474293F4529412042EFEB4020A29
:1015B30090000112044742934294EEB4030D90004D
:1015C30001120447FEF45293EE4294EF6401704318
:1015D30012042EFE700B900001120447F452915234
:1015E30092EEB4010B9000011204474291F452921F
:1015F30012042EB4020A900001120447429142924F
:1016030012042EB4030D900001120447FEF452910C
:10161300EE4292EF6402704312042EFE700B9000B0
:1016230001120447F452955296EEB4010B90000157
:101633001204474295F4529612042EB4020A900003
:10164300011204474295429612042EB4030D9000F2
:1016530001120447FEF45295EE4296EF6403704381
:1016630012042EFE700B900001120447F452B15283
:10167300B2EEB4010B90000112044742B1F452B22E
:1016830012042EB4020A90000112044742B142B27E
:1016930012042EB4030D900001120447FEF452B15C
:1016A300EE42B2EF6404704312042EFE700B9000FE
:1016B30001120447F452B352B4EEB4010B9000018B
:1016C30012044742B3F452B412042EB4020A900037
:1016D3000112044742B342B412042EB4030D900026
:1016E30001120447FEF452B3EE42B4EF64057043B3
:1016F30012042EFF700B900001120447F452C952DA
:10170300CAEFB4010B90000112044742C9F452CA54
:1017130012042EB4020A90000112044742C942CABD
:1017230012042EB4030D900001120447FFF452C9B2
:10173300EF42CA7F0022900309EBF0A3EAF0A3E98A
:10174300F0E490030FF0A3F0A3F0900309E0FBA3F0
:10175300E0FAA3E0F912042EFF90030CE0FBA3E0F0
:10176300FAA3E0F9EF120474900309E0FBA3E0FA93
:10177300A3E0F9900002120447FE9000011204470F
:10178300FDEDFF90030CE0FBA3E0FAA3E0F990006A
:1017930001EE8FF0120561900309E0FBA3E0FAA3C9
:1017A300E0F9900003120447FE900004120447FD81
:1017B300EDFF90030CE0FBA3E0FAA3E0F990000334
:1017C300EE8FF0120561900309E0FBA3E0FAA3E0BA
:1017D300F9900005120447FE900006120447FDED40
:1017E300FF90030CE0FBA3E0FAA3E0F9900005EE01
:1017F3008FF0120561900309E0FBA3E0FAA3E0F97F
:10180300900007120447FF90030CE0FBA3E0FAA348
:10181300E0F9900007EF120486900309E0FBA3E0D0
:10182300FAA3E0F9900008120447FE90000912049D
:1018330047FDEDFF90030CE0FBA3E0FAA3E0F99072
:101843000008EE8FF012056190000112052924FEB5
:10185300FF90030FF07E00900309E0FBA3E0FAA3DF
:10186300E0240AF9E43AFAC003C002C001A3E0FB92
:10187300A3E0FAA3E0240AF9E43AA801FCAD03D0FB
:1018830001D002D00312040890030FE0240AF09061
:101893000309E0FBA3E0FAA3E0F990030FE0FF04E0
:1018A300F08F82758300120447FF90030CE0FBA3C3
:1018B300E0FAA3E0F990003CEF120486900309E0FC
:1018C300FBA3E0FAA3E0F990030FE0F58275830030
:1018D300120447FF90030CE0FBA3E0FAA3E0F990A6
:1018E300003DEF12048690003EE402048690022B32
:1018F300EBF0A3EAF0A3E9F0AD07EDD394034003C3
:10190300021A8EED6403704CC2DEF5F9F5E990021C
:101913002BE0FBA3E0FAA3E0F912042EFFE5A254A7
:10192300CF4FF5A2900001120447FFE5D954F14FC0
:10193300F5D99000041204475401FFE5D954FE4F32
:10194300F5D9900005120447B40104D2BF8002C246
:10195300BFD2DE2290022BE0FBA3E0FAA3E0240433
:10196300F9E43AFA12042E543112047490022BE073
:10197300FBA3E0FAA3E0F9900002120447C39448E2
:10198300400FE92404F9E43AFA12042E54CF120466
:1019930074ED704F90022BE0FBA3E0FAA3E0F99003
:1019A3000004120447FF900002120447FE4FF5DAC9
:1019B300900003120447FFE5F2543F4FF5F2900005
:1019C30006120529FBAAF090053CEAF0A3EBF0C24E
:1019D30000900537EEF090053AEAF0A3EBF0F5EA54
:1019E300EAF5FAED6401704F90022BE0FBA3E0FAF5
:1019F300A3E0F9900004120447FF90000212044789
:101A0300FE4FF5DB900003120447FFE5F3543F4F0D
:101A1300F5F3900006120529FBAAF0900540EAF0C1
:101A2300A3EBF0C201900538EEF090053EEAF0A377
:101A3300EBF0F5EBEAF5FBED6402704F90022BE05F
:101A4300FBA3E0FAA3E0F9900004120447FF90001F
:101A530002120447FE4FF5DC900003120447FFE532
:101A6300F4543F4FF5F4900006120529FDACF090B5
:101A73000544ECF0A3EDF0C202900539EEF09005B9
:101A830042ECF0A3EDF0F5ECECF5FC22AD07EDD361
:101A9300940240037F0122ED6003021B23C28C905A
:101AA3000002120447B40104D2A98002C2A9900023
:101AB30001120447B40104D2B98002C2B912042E40
:101AC300FED3940340037F0222E58954FC4EF5893B
:101AD300900003120447FFB40103538E7FEF70039A
:101AE300438E80EFB4020543890480035389FB903E
:101AF3000004120447B40105438F018003538FFE92
:101B0300900005120529E5F0F58C900005120529D2
:101B1300F58A900007120447B40102D28C7F002299
:101B2300ED64016003021BAEC28E900002120447F3
:101B3300B40104D2AB8002C2AB900001120447B4DB
:101B43000104D2BB8002C2BB12042EFEC394034025
:101B5300037F0222E58954CF4EF5899000031204D6
:101B630047FFB40103538EBFEF7003438E40EFB4BE
:101B7300020543894080035389BF90000412044740
:101B8300B40105438F028003538FFD9000051205B6
:101B930029E5F0F58D900005120529F58B900007D6
:101BA300120447B40102D28E7F0022ED64027074E6
:101BB300538EEF900002120447B4010543AF048033
:101BC3000353AFFB900003120447FED39402400378
:101BD3007F0222EEB40103538EFB900003120447ED
:101BE3007003438E04900003120447B40205438E2E
:101BF300088003538EF7900004120447B401054391
:101C03008F048003538FFB900005120529FDACF070
:101C1300ECF5D68DD7900007120447B40103438E29
:101C2300107F00227F0222900223EFF012370790E9
:101C33000223E0FE247FF582E43404F583EFF0749D
:101C4300772EF582E43404F583E0FF747B2EF5826E
:101C5300E43404F583EFF0123424900223E0FE24ED
:101C630077F582E43404F583EFF0747B2EF582E498
:101C73003404F583E0FF74772EF582E43404F583AE
:101C8300E0FE6F7003021D51EE64016003021D1636
:101C93009005B4E0900223B40F17E025E025E0247B
:101CA3002FF582E43404F5831207610000000A80F3
:101CB30015E025E025E0242FF582E43404F58312B2
:101CC30007610000003C7FA11239DD900223E0FB95
:101CD30025E025E024ABF582E43404F583120761A3
:101CE30000000000EB25E025E0249BF582E43404AA
:101CF300F58312076100000000900223E025E02530
:101D0300E0248BF582E43404F583120761000000BC
:101D130000803B9005B4E0900223B40F17E025E068
:101D230025E0243FF582E43404F5831207610000C3
:101D3300000A8015E025E025E0243FF582E4340421
:101D4300F5831207610000003C7FA21239DD900287
:101D530023E0FF2477F582E43404F583E0B4012C17
:101D6300EF25E025E0242FF582E43404F583E0FC3D
:101D7300A3E0FDA3E0FEA3E0FFE4FBFAF9F8C3123E
:101D830006B97037900223E0FF020EBC900223E0F5
:101D930025E025E0243FF582E43404F583E0FCA349
:101DA300E0FDA3E0FEA3E0FFE4FBFAF9F8C31206AB
:101DB300B97008900223E0FF12254122E490021338
:101DC300F0A3F0A3F0A304F078177C02FD7BFF7A65
:101DD3003C798A7E007F03120408E490021AF078AB
:101DE3001B7C027D017BFF7A3C798DFE7F0412040C
:101DF3000890021F12076100000000123ACB123B49
:101E030052123A881236C49005B4EFF01239DD90BD
:101E130005B4E0640F600C1238377D807C00E4FF6A
:101E2300122B40E4900215F0900215E0FFC39404D6
:101E3300501AEF75F003A424D3F9740435F0FA7B38
:101E43000112002E900215E004F080DCE4FD7F0710
:101E5300021F2C12002690021AE01460141460650D
:101E630014606D24037077900215E0FF123801802F
:101E730057E47FE87E03FDFC90041EE0F8A3E0F93D
:101E8300A3E0FAA3E0FBC31206B9401CE4FFFEFD86
:101E9300FC90041E120755E4FBFAF9F8C31206B9C5
:101EA3007F0070027F0180027F00EF6016900215B1
:101EB300E0FF121C2A900215E004F0E0D3940340E3
:101EC30002E4F08003122A9290021AE004F0800EDA
:101ED3007B017A047973122F77E490021AF0E47F7E
:101EE300F47E01FDFC90041AE0F8A3E0F9A3E0FA04
:101EF300A3E0FBC31206B9401CE4FFFEFDFC900403
:101F03001A120755E4FBFAF9F8C31206B97F0070F9
:101F1300027F0180027F00EF7003021E567F0412CE
:101F23003961BF010AE4FD7F06123265021E567D48
:101F3300017F06123265021E5690038AEBF0A3EA74
:101F4300F0A3E9F0E49003CCF0A3F0A3F0A3F078BE
:101F5300D07C037D017BFF7A3B79CEFE7F32120476
:101F630008E4900402F0A3F0A3F0A3F090020EE0C3
:101F73006401600302209E7F1EFEFDFC900422E0AC
:101F8300F8A3E0F9A3E0FAA3E0FBC31206B9401CEF
:101F9300E4FFFEFDFC900422120755E4FBFAF9F876
:101FA300C31206B97F0070027F0180027F00EF70C9
:101FB3000302209E90008EE0900402F0900090E0D7
:101FC300FE90008FE0FDEDFF9003CCEEF0A3EFF069
:101FD300E4A3F0A3F09003CDE02407FF9003CCE04B
:101FE3003400FE9003CEE0FCA3E0FDC39FEC9E50C3
:101FF3002AAF05748F2FF582E43400F583E0FE7475
:10200300D02FF582E43403F583EEF09003CFE004A0
:10201300F070C29003CEE004F080BA9003CCA3E04A
:10202300FFFD2496F582E43400F583E0900404F088
:1020330074972DF582E43400F583E0900403F07B7C
:10204300017A0379D0EF2407FD12348C900405EF55
:10205300F0900402E0B4682DA3E0B41628900405C0
:10206300E0FF900404E0B5071C90038AE0FBA3E0C3
:10207300FAA3E0F8AC02AD037B017A00798E7E000F
:102083007F80120408E490020EF0900004F0FE7FBB
:1020930080FD7B017A00798E1207BF22900309EB42
:1020A300F0A3EAF0A3E9F0E490034BF0A3F0A3F06C
:1020B300A3F0784F7C037D017BFF7A3C7900FE7FA0
:1020C30032120408E4900381F0A3F0A3F0A3F0908C
:1020D300020FE0640160030221F67F1EFEFDFC9007
:1020E3000426E0F8A3E0F9A3E0FAA3E0FBC3120699
:1020F300B9401CE4FFFEFDFC900426120755E4FBE7
:10210300FAF9F8C31206B97F0070027F0180027FDB
:1021130000EF70030221F690018EE0900381F090AE
:102123000190E0FE90018FE0FDEDFF90034BEEF098
:10213300A3EFF0E4A3F0A3F090034BE0FEA3E0FFD2
:10214300A3E0FCA3E0FDC39FEC9E502AAF05749669
:102153002FF582E43401F583E0FE744F2FF582E41A
:102163003403F583EEF090034EE004F070CA90035D
:102173004DE004F080C290034BA3E0FD2496F5826A
:10218300E43401F583E0900383F074972DF582E442
:102193003401F583E0900382F07B017A03794F12D7
:1021A300348C900384EFF0900381E06468702EA375
:1021B300E0B41629900384E0F4FF900383E0B507AD
:1021C3001C900309E0FBA3E0FAA3E0F8AC02AD0323
:1021D3007B017A01798E7E007F80120408E49002ED
:1021E3000FF090000BF0FE7F80FD7B017A01798E6A
:1021F3001207BF224105B40042042A000041042C07
:102203000041042D0041042E0050042F0000000063
:1022130000000000000000000000000050043F0028
:102223000000000000000000000000000000004467
:10223300044F0000000050045300000000000000A1
:1022430000000000000000000050046300000000D4
:1022530000000000000000000000000060240406ED
:10226300000000000000000000000000000000006B
:10227300000000000000000000000000000000005B
:1022830000000000440473000000004404770000D1
:10229300000044047B0000000044047F00000000B1
:1022A300440483000000004404870000000050043D
:1022B3008B00000000000000000000000000000090
:1022C3000050049B0000000000000000000000001C
:1022D300000000005004AB000000000000000000FC
:1022E300000000000000004404BB00000000500494
:1022F300BF0000000000000000000000000000001C
:10230300004404CF000000004104DF0041020E003E
:1023130041020F0000900574EFF0A3120761000063
:102323000000900579120761000000009005751206
:10233300076100000000E47F0AFEFDFC900575E0E4
:10234300F8A3E0F9A3E0FAA3E0FBC31206B9400344
:1023530002243212334E900574E0FB25E025E0247D
:10236300BFF582E43404F583120755EB25E025E03D
:1023730024BFF582E43404F583E0FCA3E0FDA3E08D
:10238300FEA3E0FFE4FB7A04F9F8D31206B9405F39
:10239300900579E0FCA3E0FDA3E0FEA3E02401FFA8
:1023A300E43EFEE43DFDE43CFC900579120755E470
:1023B3007F08FEFDFC900579E0F8A3E0F9A3E0FABD
:1023C300A3E0FBD31206B9404490057912076100DC
:1023D300000000900574E024CFF582E43404F58313
:1023E3007401F07F331239DD900574E0FF801B9098
:1023F300057912076100000000900574E024CFF511
:1024030082E43404F583E4F07F221239DD9005750C
:10241300E0FCA3E0FDA3E0FEA3E02401FFE43EFE15
:10242300E43DFDE43CFC9005751207550223392277
:10243300C0E0C0F0C083C082C0D075D000C000C06F
:1024430001C002C003C004C005C006C0079002104B
:10245300E4F0A3F0900210F0A3F0900210E0FEA3CA
:10246300E0FFC39409EE94005065EF7802C333CEC6
:1024730033CED8F92406F58274043EF583E0FCA339
:10248300E0FDA3E0FEA3E02401FFE43EFEE43DFD06
:10249300E43CFCC004C005C006C007900210E0FE87
:1024A300A3E07802C333CE33CED8F92406F5827481
:1024B300043EF583D007D006D005D004120755900B
:1024C3000211E004F07093900210E004F0808B900E
:1024D300042BE004F0700690042AE004F0120009D3
:1024E300D390042BE094E790042AE094034034E46F
:1024F300F0A3F0A3E004F012139490042CE0D3941F
:102503003B4020E4F0A3E004F012000AE0D3943B44
:102513004011E4F0A3E004F012001AE0D394174052
:1025230002E4F0D007D006D005D004D003D002D007
:1025330001D000D0D0D082D083D0F0D0E03290024E
:1025430024EFF0FBA31207610000000090022912A0
:10255300076100000000E4FEEB2403FF1234EA12DB
:102563003A049002251207557F9A7E997DD97C3FC4
:10257300900225E0F8A3E0F9A3E0FAA3E0FB12023E
:102583000C60734071900224E025E025E02463F59C
:1025930082E43404F583E0FCA3E0FDA3E0FEA3E0C2
:1025A300FFE4FBFAF9F8C31206B9600302263E9072
:1025B30005B4E0900224B40F17E025E025E024637E
:1025C300F582E43404F5831207610000000A8015E4
:1025D300E025E025E02463F582E43404F583120763
:1025E300610000003C900224E02473F582E434048B
:1025F300F5837401F0229005B4E0900224B40F1720
:10260300E025E025E02463F582E43404F583120732
:10261300610000000A8015E025E025E02463F582CF
:10262300E43404F5831207610000003C900224E0C7
:102633002473F582E43404F583E4F022AB079005B8
:102643005D12076100000000900561120761000040
:10265300000090056512076100000000E490056921
:10266300F0A3F0AF031231EF90055D120755E47F3D
:102673005AFEFDFC90055DE0F8A3E0F9A3E0FAA3A0
:10268300E0FB12058EE47B64FAF9F8120619900553
:102693005D120755E490056AF012334E90056512FA
:1026A30007557F027E007D007C0012367F90055D1A
:1026B300E0FCA3E0FDA3E0FEA3E0FF900565E0F8E6
:1026C300A3E0F9A3E0FAA3E0FBC31206B9504B90D1
:1026D3000561E0FCA3E0FDA3E0FEA3E02401FFE429
:1026E3003EFEE43DFDE43CFC900561120755E47FAA
:1026F30008FEFDFC900561E0F8A3E0F9A3E0FAA36E
:10270300E0FBD31206B9401C90056112076100007B
:1027130000009005697401F0800A90056112076159
:102723000000000090056AE004F0E0C3940A50033F
:1027330002269C900569E0FF2290054CEFF0A3125E
:1027430007610000000090055112076100000000BE
:1027530090055512076100000000E4900559F078D8
:102763005A7C057D017BFF7A3C7977FE7F03120457
:1027730008E4900559F012334E90054D1207557F2A
:10278300027E007D007C0012367F900555E0FCA39D
:10279300E0FDA3E0FEA3E0FF90054DE0F8A3E0F920
:1027A300A3E0FAA3E0FBEF2BFFEE3AFEED39FDECDD
:1027B30038FC900555120755900559E004F0E0C325
:1027C300940A40B2E47B0AFAF9F8900555E0FCA3B9
:1027D300E0FDA3E0FEA3E0FF1206199005511207E6
:1027E30055900551E0FCA3E0FDA3E0FEA3E0FF78D4
:1027F300101206CA90055AEFF0900551E0FCA3E0D1
:10280300FDA3E0FEA3E0FF78081206CA90055BEF84
:10281300F0900551E0FCA3E0FDA3E0FEA3E0FFE49C
:1028230090055CEFF07F5A022FFC900598EFF0784B
:10283300997C057D017BFF7A3C79917E007F0512AF
:102843000408900598E014603914605F1470030263
:1028530028D7240360030229037B017A0579999021
:102863000230E4F0A37403F07F007E011237487B4B
:10287300017A05799990058AE4F0A37403F07F2027
:1028830080797B017A057999900230E4F0A374038F
:10289300F07F047E011237487B017A057999900510
:1028A3008AE4F0A37403F07F2480507B017A0579D6
:1028B30099900230E4F0A37403F07F087E0112378D
:1028C300487B017A05799990058AE4F0A37403F0B3
:1028D3007F2880277B017A057999900230E4F0A361
:1028E3007403F07F0B7E011237487B017A057999D7
:1028F30090058AE4F0A37403F07F2B7E01123787DF
:1029030022C0E0C0F0C083C082C0D075D000C00038
:10291300C001C002C003C004C005C006C007E59AD9
:1029230030E057539AFE90000DE0704E90020F0472
:10293300F0E4FFFEFDFC900426E0F8A3E0F9A3E039
:10294300FAA3E0FBC31206B9400BE4FFFEFDFC90C3
:10295300042612075590000BE0FF04F0748E2FF548
:1029630082E43401F583E59BF090000BE0C394808F
:102973004002E4F090000C7405F0E59A30E1315325
:102983009AFD900009E0FF900008E0FE6F601C7460
:102993000E2EF582E43401F583E0F59B900008E008
:1029A30004F0C394804009E4F0800590000AE4F049
:1029B300D007D006D005D004D003D002D001D00078
:1029C300D0D0D082D083D0F0D0E032C0E0C0F0C00D
:1029D30083C082C0D075D000C000C001C002C00354
:1029E300C004C005C006C007309856C298900006C0
:1029F300E0704E90020E04F0E4FFFEFDFC90042212
:102A0300E0F8A3E0F9A3E0FAA3E0FBC31206B940A0
:102A13000BE4FFFEFDFC900422120755900004E036
:102A2300FF04F0748E2FF582E43400F583E599F00A
:102A3300900004E0C394804002E4F090000C74051D
:102A4300F0309930C299900002E0FF900001E0FE5F
:102A53006F601C740E2EF582E43400F583E0F59963
:102A6300900001E004F0C394804009E4F0800590F5
:102A73000003E4F0D007D006D005D004D003D00281
:102A8300D001D000D0D0D082D083D0F0D0E0327843
:102A9300A17C027D017BFF7A3B796A7E007F321243
:102AA300040878D37C027D017BFF7A3B799C7E000E
:102AB3007F32120408E4900305F0A3F0A3F0A3F01F
:102AC300FE7F3FFD7B017A0279621207BF7B017AA9
:102AD3000279A112209F90030C7401F0A37402F0F9
:102AE300A37423F07B017A0279A112173990022B88
:102AF300E0FEA3E08EF01207922B04400100002BAE
:102B03003F900224E07004A3E06404702F7B0190E3
:102B1300030C04F0A37402F0A374D3F0A3EBF0A3AB
:102B23007403F0A37405F07A027923120B967B01E8
:102B33007A0279D3900305E0FD1235EB22EF70346E
:102B4300D3ED9450EC940F40047C0F7D50C3ED946F
:102B530050EC940050047C007D50C2DE90053CECA8
:102B6300F0A3EDF0C374A09D900547F0740F9C9003
:102B730005468073EF64017034D3ED9468EC940BD5
:102B830040047C0B7D68C3ED9450EC940050047CAE
:102B9300007D50C2DE900540ECF0A3EDF0C374B8A5
:102BA3009D900549F0740B9C900548803AEF6402B0
:102BB3007038D3ED9480EC940740047C077D80C388
:102BC300ED9450EC940050047C007D50C2DE9005DF
:102BD30044ECF0A3EDF0AE04FFC374D09F90054B1B
:102BE300F074079E90054AF0D2DE2290051AEFF0AA
:102BF300E4A3F0A3F0781D7C057D017BFF7A3C798B
:102C030032FE7F14120408E4900531F0A3F0A312FE
:102C1300076100000000E4900531F0A3F090051A6D
:102C2300E0FF1234EA90051BEEF0A3EFF0900533BA
:102C3300E0F8A3E0F9A3E0FAA3E0FB90051BE0FEB4
:102C4300A3E0FFE4FCFDEB2FFFEA3EFEED39FDECD4
:102C530038FC900533120755900532E004F07006F6
:102C6300900531E004F0C3900532E0940A900531F9
:102C7300E0940040A8E47B0AFAF9F8900533E0FCFD
:102C8300A3E0FDA3E0FEA3E0FF12061990051BEEEF
:102C9300F0A3EFF022C0E0C083C082C0D075D000A3
:102CA300C006C00730D82AC2D830A50590053C809D
:102CB30003900546E0FEA3E0FF90053BE02FF09074
:102CC300053AE03EF090053AE0FEA3E0F5EAEEF5C2
:102CD300FA30D92AC2D930A6059005408003900561
:102CE30048E0FEA3E0FF90053FE02FF090053EE0B3
:102CF3003EF090053EE0FEA3E0F5EBEEF5FB30DAA7
:102D03002AC2DA30A705900544800390054AE0FE05
:102D1300A3E0FF900543E02FF0900542E03EF090E2
:102D23000542E0FEA3E0F5ECEEF5FCD007D006D0BB
:102D3300D0D082D083D0E03290057DEFF0A3EBF0CA
:102D4300A3EAF0A3E9F0E4900582F078837C057DA3
:102D5300017BFF7A3C797FFE7F02120408C2A090B8
:102D6300058374EAF0A374E5F0900583E0FF12395C
:102D73008C900584E0FF12398C90057DE04480FF40
:102D830012398CE4900582F0900581E0FFA3E0FE08
:102D9300C39F501F90057EE0FBA3E0FAA3E0F98EEA
:102DA30082758300120447FF12398C900582E00478
:102DB300F080D590058374EAF0A374DCF09005836A
:102DC300E0FF12398C900584E0FF12398CD2A022E7
:102DD3007B019002377403F07F22900233EFF0A35C
:102DE300EBF0A3EAF0A3E9F0E4900238F078397C41
:102DF300027D017BFF7A3C797AFE7F05120408C2CB
:102E0300A0900233E0FF12398C900237E090023930
:102E1300F0E4900238F0900237E0FFA3E0C39F5044
:102E23003912363A900234E0FBA3E0FAA3E0F990BA
:102E33000238E0FEF582758300EF1204868E8275F8
:102E43008300120447FF74392EF582E43402F583BC
:102E5300EFF0900238E004F080BCD2A022787FE447
:102E6300F6D8FD758120022EA7021DBFE493A3F8B7
:102E7300E493A34003F68001F208DFF48029E4938E
:102E8300A3F85407240CC8C333C4540F4420C88385
:102E93004004F456800146F6DFE4800B0102040887
:102EA300102040809021F7E47E019360BCA3FF547F
:102EB3003F30E509541FFEE493A360010ECF54C0D5
:102EC30025E060A840B8E493A3FAE493A3F8E4935D
:102ED300A3C8C582C8CAC583CAF0A3C8C582C8CA65
:102EE300C583CADFE9DEE780BEE490056BF0A3F09B
:102EF300786D7C057D017BFF7A3C7987FE7F031229
:102F03000408E4FF900570120761000000007A05D1
:102F1300796D122DD390056DE0FF90056BE4F0A35E
:102F2300EFF0E0FE90056EE07C002400FFEC3EFE37
:102F330090056BF0A3EFF0FDAC06E412027E7B007C
:102F43007AC079C078441200669005701207557FE5
:102F5300111239DD90056BE0FF1239DD90056BA38B
:102F6300E0FF1239DD900570E0FCA3E0FDA3E0FE75
:102F7300A3E0FF22900223EBF0A3EAF0A3E9F09091
:102F83000223E0FBA3E0FAA3E0F912042EB4010448
:102F9300E4FD80027D017F02123265900223E0FB93
:102FA300A3E0FAA3E0F9900001120447B40104E49A
:102FB300FD80027D017F03123265900223E0FBA3B3
:102FC300E0FAA3E0F9900002120447B40104E4FD1F
:102FD30080027D017F04123265900223E0FBA3E0AF
:102FE300FAA3E0F9900003120447B40104E4FD805E
:102FF300027D017F05123265229005A9EBF0A3EA59
:10300300F0A3E9F0EF14602214603714604C24033A
:1030130070639005A9E0FBA3E0FAA3E0F990058AA9
:10302300E4F0A37403F07F0080469005A9E0FBA3BE
:10303300E0FAA3E0F990058AE4F0A37403F07F04B7
:10304300802E9005A9E0FBA3E0FAA3E0F990058A9E
:10305300E4F0A37403F07F0880169005A9E0FBA3B6
:10306300E0FAA3E0F990058AE4F0A37403F07F0B80
:103073007E01123787229005ACEBF0A3EAF0A3E9B7
:10308300F0EF14602214603714604C2403706390D3
:1030930005ACE0FBA3E0FAA3E0F990058AE4F0A312
:1030A3007403F07F2080469005ACE0FBA3E0FAA315
:1030B300E0F990058AE4F0A37403F07F24802E9056
:1030C30005ACE0FBA3E0FAA3E0F990058AE4F0A3E2
:1030D3007403F07F2880169005ACE0FBA3E0FAA30D
:1030E300E0F990058AE4F0A37403F07F2B7E0112CC
:1030F300378722900228EBF0A3EAF0A3E9F0EF145C
:10310300602214603714604C24037063900228E03B
:10311300FBA3E0FAA3E0F9900230E4F0A37403F018
:103123007F208046900228E0FBA3E0FAA3E0F99019
:103133000230E4F0A37403F07F24802E900228E091
:10314300FBA3E0FAA3E0F9900230E4F0A37403F0E8
:103153007F288016900228E0FBA3E0FAA3E0F99011
:103163000230E4F0A37403F07F2B7E011237482270
:103173009005A1EDF090059EEBF0A3EAF0A3E9F032
:103183009000011204472401FFE433FE7C007D0B11
:103193001204A890059EE0FBA3E0FAA3E0F9120451
:1031A3002EB505037F00229005A1E0FF90000112D8
:1031B3000447FD7C00E92402F9E43AFAE92DF9EC2D
:1031C3003AFAEF12047490059EE0FBA3E0FAA3E041
:1031D300F99000011204472401FFE433FE7D0B1232
:1031E30004A8900001ED1204867F01229005A2EF4E
:1031F300F078A37C057D017BFF7A3C79747E007FA8
:10320300031204087E007D007C009005A2E0FF7B92
:10321300017A0579A31230F69005A3E0FFE4FCFDE3
:10322300FE78081206DDA804A905AA06AB07A3E0E9
:10323300FFE4FCFDFEEB2FFFEE3AFEED39FDEC382B
:10324300FC78081206DDA804A905AA06AB07A3E0CB
:10325300FFE4FCFDFEEB2FFFEE3AFEED39FDEC380B
:10326300FC22EFB40800506E903272F828287302E3
:10327300328A02329402329E0232A80232B20232FF
:10328300BC0232C60232D0EDB40103D2CC22C2CC8E
:1032930022EDB40103D2CD22C2CD22EDB40103D27B
:1032A3008022C28022EDB40103D2A722C2A722ED5D
:1032B300B40103D2A622C2A622EDB40103D2A522F1
:1032C300C2A522EDB40103D2A422C2A422EDB4010B
:1032D30003D29222C2922290058CEBF0A3EAF0A3D0
:1032E300E9F090058CE0FBA3E0FAA3E0F99000017C
:1032F300120447FF12042EFEB507037F0022900538
:103303008CE0FBA3E0FAA3E02402F9E43AFAEE7EB0
:103313000029F9EE3AFA12042EFF90058FE0FBA381
:10332300E0FAA3E0F9EF12047490058CE0FBA3E04C
:10333300FAA3E0F912042E2401FFEE33FE7C007D94
:103343000B1204A8ED1204747F0122782F7C027DF6
:10335300017BFF7A3C79847E007F03120408E490AA
:103363000232F0FEFDFC7A02792F122DD390022F48
:10337300E0FFE4FCFDFE78081206DDA804A905AA17
:1033830006AB07A3E0FFE4FCFDFEEB2FFFEE3AFEE6
:10339300ED39FDEC38FC78081206DDA804A905AA6E
:1033A30006AB07A3E0FFE4FCFDFEEB2FFFEE3AFEC6
:1033B300ED39FDEC38FC22900592EBF0A3EAF0A383
:1033C300E9F012042EFFFE900001120447B5070333
:1033D3007F0022900592E0FBA3E0FAA3E0F99000BE
:1033E300011204476E6037E92402F9E43AFAEE7CED
:1033F3000029F9EC3AFA12042EFF900595E0FBA39D
:10340300E475F001120513A9F0FAEF120474EE2427
:1034130001FFE433FE7D0B1204A8AE0580B57F01E6
:1034230022E4900224F0A3F0A3F0A3F0A3F090020F
:1034330025F012359B900227EEF0A3EFF07F027E7A
:10344300007D007C0012367F900226E004F0C390DA
:103453000228E09464900227E09400501090022622
:10346300E094084012E4F0900224F0800AE4900211
:1034730026F090022404F0900225E004F0E0C394C7
:103483000A40AF900224E0FF22900385EBF0A3EA09
:10349300F0A3E9F0AC05E4A3F0A3F0FFEFC39C5065
:1034A30034900385E0FBA3E0FAA3E0F98F827583F0
:1034B30000120447FB900389E02BF0900388E0346B
:1034C30000F0E0FAA3E0FBEA6008900388E4F0A3CD
:1034D300EBF00F80C7900388E0FEA3E0F4FF9003B6
:1034E30088EEF0A3EFF022EFD3940740028051E47B
:1034F300F5BDF5BEE5BC54E044084FF5BC00000043
:1035030000E4FBE5BC30E43353BCEFE59730E50959
:10351300E5BD5403ADBEFC801DAFBD7C00AD07ED22
:103523007E007802C333CE33CED8F9FFE5BE540311
:10353300FDEEFCEF4DFDAF05AE04220BEBB4FAC379
:103543007E047F002212042EF59D90000112044791
:10355300FFE5BC549F4FF5BC900002120447B40131
:103563000543BC80800353BC7F900003120447B41F
:10357300010543972080035397DF9000051204470A
:10358300B40104D2AD8002C2AD900004120447B46A
:103593000103D2BD22C2BD22E4FE78297C027D0153
:1035A3007BFF7A3C79817F03120408E490022CF0BC
:1035B300FDFC7B017A0279299002377403F07F24A2
:1035C300122DDD900229E0FEA3E07C002400FFEC35
:1035D3003EFEAD07FCE412027E7BCA7A9879F1784D
:1035E3003C1200661202B722900309EBF0A3EAF043
:1035F300A3E9F0A3EDF0E4FE7D017F07123265E459
:10360300FE90030CE0FFEEC39F501A900309E0FB0A
:10361300A3E0FAA3E0F98E82758300120447FF1238
:1036230039B50E80DC7F1E7E007D007C0012367F64
:10363300E4FD7F07023265E490023EF0A3F09002BE
:103643003EF090023FE025E0F0D2A17F067E007DB0
:10365300007C00123AA1C2A1A2A2E433FE90023F71
:103663006006E04401F08002E0F090023EE004F0E6
:10367300E0C3940840CC90023FE0FF22803A9003DD
:103683000DE0FCA3E0FDA3E0FEA3E0FFEC4D4E4FF5
:10369300602E00007F167E80DEFEDFFC90030DE0CF
:1036A300FCA3E0FDA3E0FEA3E024FFFFEE34FFFE56
:1036B300ED34FFFDEC34FFFC90030D12075580BE83
:1036C30022E4FF0F123961EF540125E0FFC007E444
:1036D300FF123961EF5401FED0E04EFFC0077F02B5
:1036E300123961EF540325E025E0FED0E04EFFC020
:1036F300077F03123961EF540133333354F8FED09B
:10370300E04EFF22900224EFF0E478257C027D0155
:103713007BFF7A3C7946FE7F03120408900224E083
:10372300FF7B017A0279251230F6E4FF74252FF529
:1037330082E43402F583E0F460037F00220FEFB4E8
:1037430003EA7F0122AD07AC06C2AF75C78175C519
:1037530001ECF5C3AF058FC475C65A75C6A500E560
:10376300C21204740DBD00010C740129F9E43AFA84
:1037730090023074FFF5F01204FD45F070D3123B54
:103783003DD2AF22AD07AC06C2AF75C78175C50286
:10379300ECF5C3AF058FC412042EF5C275C65A7576
:1037A300C6A5000DBD00010C740129F9E43AFA9095
:1037B300058A74FFF5F01204FD45F070D3123B3D0A
:1037C300D2AF229005B2EFF0E4A3F09005B3E0FF8F
:1037D3009005B2E0FEA807088002C313D8FC540189
:1037E300FEEFFDC374079DFDE494008D82F583EE27
:1037F3001204869005B3E004F0E0B408CE22EF147F
:10380300600E14601614601D24037027E4FD80030A
:103813007D01E4FF123265E4FD8013E4FDFF123203
:10382300657D0180097D01E4FF1232657D017F0121
:1038330012326522E5A254CF4410F5A290022374FC
:1038430010F0A37408F0E4900228F090022574426B
:10385300F0E4A3F0A3F09002297480F0A3E4F07BDA
:10386300017A027923FF0218F09005A6EBF0A3EA90
:10387300F0A3E9F09005A6E0FBA3E0FAA3E0F9903A
:1038830000011204472401FFE433FE7C007D0B1288
:1038930004A812042E7F00B505027F012290033095
:1038A300EBF0A3EAF0A3E9F0E4FEEFA80608800238
:1038B300C313D8FC5401FD900330E0FBA3E0FAA34B
:1038C300E0F98E82758300ED1204860EEEB408DAF9
:1038D300229002237440F0A37402F0A31207610044
:1038E30000258090022A7401F0E4A3F0A304F0A35E
:1038F300F0E4A3F0A3F07B017A0279237F010208AD
:10390300219002237440F0A37402F0A31207610014
:1039130000258090022A7401F0E4A3F0A304F0E4EC
:10392300A3F0A3F0A3F07B017A0279237F020208BC
:10393300219005AFEBF0A3EAF0A3E9F0E4FEEEC3B8
:103943009D501A9005AFE0FBA3E0FAA3E0F98E8245
:10395300758300120447FF1239DD0E80E122E4FE75
:10396300EF146011146012146013146014240470B3
:1039730015A2B4800EA2B5800AA2B68006A2B780B3
:1039830002A2A4E433FEAF0622E4F50CF50DF50E16
:1039930090023EF0A3F0F50DD2A1EF30E704D2A3DD
:1039A3008002C2A3EF25E0FFC2A1050DE50DB40817
:1039B300E722900009E0240EF582E43401F583EF59
:1039C300F0900009E004F0C394804002E4F090001A
:1039D3000AE0700504F0439A0222900002E0240EEC
:1039E300F582E43400F583EFF0900002E004F0C3C5
:1039F30094804002E4F0900003E0700404F0D29954
:103A030022AB07AA06AE02AF03AD07AC06E412026F
:103A13007EE4FBFA79A07840120066E4FBFA798031
:103A2300784412016F2290022374F8F0A37420F0FB
:103A3300A37401F0E4A3F0A3F0A3F07B017A02796D
:103A4300231235487F0102000EAD07AC06C2AFEC6E
:103A5300F5C3AF058FC475C78175C50375C65A75A0
:103A6300C6A500123B3DD2AF22E47F03123961EFBA
:103A7300540125E0FFC0077F02123961EF5401FEB4
:103A8300D0E04EFF22C2A07FEA12398C7FFA1239AE
:103A93008C7FEA12398C7F5A12398CD2A022900281
:103AA3004012075590024074FF120722EC4D4E4F0F
:103AB30070F2229002237401F0A37478F07B017AF0
:103AC3000279237F01021575123AB612001E1238CD
:103AD300D412390412003E123A29023AF39000013B
:103AE300120447FF12042EB507037F01227F002231
:103AF300438E805389F0758A9A758CA9C28DD28CB6
:103B0300D2A92212042EFF600C1239DD740129F9A7
:103B1300E43AFA80EE2212042EFF600C1239B574D7
:103B23000129F9E43AFA80EE229005B5EFF0E4F5C5
:103B330008F509F50AF50BAF0822E4F5C7F5C5F555
:103B4300C675C3FF75C4FF2253BCEF32C2AF22D286
:103B5300AF22B2903200000000000000000000001D
:103B63000000000000000000000000000000000052
:103B73000000000000000000000000000000000042
:103B83000000000000000000000000000000000032
:103B93000000000000000000000000000000000022
:103BA3000000000000000000000000000000000012
:103BB3000000000000000000000000000000000002
:103BC30000000000000000000000000000000000F2
:103BD30000000000000000000000000000000000E2
:103BE30000000000000000000000000000000000D2
:103BF30000000000000000000000000000000000C2
:103C030000000000000000000000000000000000B1
:103C130000000000000000000000000000000000A1
:103C23000000000000000000000000000000000091
:103C33000000000000000000000000000000000081
:103C43000000000000000000000000000000000071
:103C53000000000000000000000000000000000061
:103C63000000000000000000000000000000000051
:103C73000000000000000000000000000000000041
:103C83000000000000000000000000000000000031
:033C93000000002E
:00000001FF
