:10000000022FCEE49005B6F0222222022438EFB46B
:10001000010443BC802253BC7F222202002275C10E
:0A0020003F22320229D375C13F22AE
:10002B00023BBFE41204749000010204860200003C
:07003B00022E0653CEBF2286
:10004300022909E4FF0F1239D5EF540125E0FFC05F
:0F00530007E4FF1239D5EF5401FED0E04EFF2233
:10006300023BC9EC4D6011E8497017ED33EC3304E2
:10007300600DE4FCFFFEFD22E933E8330470F8026F
:1000830003231202EE58046009E4CC2481500628AD
:10009300500902032D28400302032AC0E0EB4A70F3
:1000A30044B98006D0E0FB020319EF4E701CBD80FB
:1000B30008EBFFEAFEE9FD80EBE98DF0A4FEE5F035
:1000C30002014FE9CDF9EAFEEBFFEF89F0A4FCE56D
:1000D300F0CE89F0A42EFFE435F0CD89F0A42DFEF7
:1000E300E435F08067EF4E7005BD80D780C3EF8B9A
:1000F300F0A4ACF0EE8BF0A42CFCE435F0F8EF8A1E
:10010300F0A42CE5F038FCE433CB8DF0A42CFCE513
:10011300F03BF8EE8AF0A42CFCE5F038F8E433CF9A
:1001230089F0A42CFCE5F038CF3400CE89F0A42F5D
:10013300FFE5F03EFEE433C98DF0A42EFEE5F03971
:10014300CD8AF0A42FFFE5F03EFEE43DFD33D0E081
:10015300FB50070BBB000F02032DEC2CFCEF33FF0E
:10016300EE33FEED33FD02030502032DEC5D046067
:1001730005E8590470030203231202EE580460F6E3
:10018300EC4860F2EC7004FDFEFF22C860DB2481C2
:10019300C85009C3986002500602032A9850CAF552
:1001A30082E9294B4A7005AB8202031975F0007C82
:1001B3001A7880C3EF9BEE9AED99400DC3EF9BFF36
:1001C300EE9AFEED99FDE842F0DC23ACF0D0E0FFBF
:1001D300D0E0FED0E0FDAB8220E7101BEB60BAEC71
:1001E3002CFCEF33FFEE33FEED33FD020305E80392
:1001F300F830E705C0F075F000EF2FFFEE33FEEDAA
:1002030033FD40B830E7C280AA74F8CC6480CCC810
:100213006480C8F582046043C3EB9FF5F0EA9E4215
:10022300F0E99D42F0E89C45F060305018E5825FAC
:10023300FFE582F42B5582FB50210ABA001D09B950
:100243000019088016E5825BFBE582F42F5582FFD7
:1002530050090EBE00050DBD00010CC3EB9FF5F068
:10026300EA9E42F0E99D42F0E89C45F06007CC48E5
:1002730020E701B3EC2275F020800E75F0108005A5
:1002830075F0087D007E007F003392D530D50312D0
:1002930006ABEC334010EF33FFEE33FEED33FDECF2
:1002A30033FCD5F0ED22E5F0247EA2D513CC92E702
:1002B300CDCEFF22EDD2E7CD33EC3392D52481406E
:1002C30006E4FFFEFDFC22FCE4CFCECDCC24E050BF
:1002D3001174FF80EDC3CC13CCCD13CDCE13CECF91
:1002E30013CF0470F030D5DE0206ABE9D2E7C93391
:1002F300E833F892D5EDD2E7CD33EC33FC5002B2BC
:10030300D522EC30E7100FBF000C0EBE00080DBD68
:1003130000040BEB6014A2D5EB13FCED92E7FD2276
:1003230074FFFCFDFEFF22E480F8A2D574FF13FCEA
:100333007D80E480EFE709F608DFFA8046E709F2FB
:1003430008DFFA803E88828C83E709F0A3DFFA8016
:1003530032E309F608DFFA8078E309F208DFFA806E
:100363007088828C83E309F0A3DFFA806489828A30
:1003730083E0A3F608DFFA805889828A83E0A3F238
:1003830008DFFA804C80D280FA80C680D4806980EE
:10039300F28033801080A680EA809A80A880DA8079
:1003A300E280CA803389828A83ECFAE493A3C8C5C6
:1003B30082C8CCC583CCF0A3C8C582C8CCC583CCC6
:1003C300DFE9DEE7800D89828A83E493A3F608DF01
:1003D300F9ECFAA9F0EDFB2289828A83ECFAE0A317
:1003E300C8C582C8CCC583CCF0A3C8C582C8CCC558
:1003F30083CCDFEADEE880DB89828A83E493A3F29D
:1004030008DFF980CC88F0EF60010E4E60C388F0FE
:10041300ED2402B4040050B9F582EB2402B40400C5
:1004230050AF232345822390038873BB010689823F
:100433008A83E0225002E722BBFE02E32289828AFA
:1004430083E49322BB010CE58229F582E5833AF527
:1004530083E0225006E92582F8E622BBFE06E92561
:1004630082F8E222E58229F582E5833AF583E49373
:1004730022BB010689828A83F0225002F722BBFE47
:1004830001F322F8BB010DE58229F582E5833AF5F4
:1004930083E8F0225006E92582C8F622BBFE05E96F
:1004A3002582C8F222BC000BBE0029EF8DF084FF29
:1004B300ADF022E4CCF875F008EF2FFFEE33FEEC3D
:1004C30033FCEE9DEC984005FCEE9DFE0FD5F0E964
:1004D300E4CEFD22EDF8F5F0EE8420D21CFEADF063
:1004E30075F008EF2FFFED33FD4007985006D5F068
:1004F300F222C398FD0FD5F0EA22C5F0F8A3E02855
:10050300F0C5F0F8E582158270021583E038F02219
:10051300A3F8E0C5F025F0F0E5821582700215839B
:10052300E0C838F0E822BB0110E58229F582E583B3
:100533003AF583E0F5F0A3E0225009E92582F88635
:10054300F008E622BBFE0AE92582F8E2F5F008E2AC
:1005530022E5832AF583E993F5F0A3E99322F8BB17
:100563000111E58229F582E5833AF583E8F0E5F0A8
:10057300A3F0225009E92582C8F608A6F022BBFEA3
:1005830009E92582C8F2E5F008F222E88FF0A4CC4D
:100593008BF0A42CFCE98EF0A42CFC8AF0EDA42CA7
:1005A300FCEA8EF0A4CDA8F08BF0A42DCC3825F076
:1005B300FDE98FF0A42CCD35F0FCEB8EF0A4FEA961
:1005C300F0EB8FF0A4CFC5F02ECD39FEE43CFCEA6E
:1005D300A42DCE35F0FDE43CFC2275F008758200B5
:1005E300EF2FFFEE33FECD33CDCC33CCC58233C5F5
:1005F300829BED9AEC99E58298400CF582EE9BFE86
:10060300ED9AFDEC99FC0FD5F0D6E4CEFBE4CDFAE0
:10061300E4CCF9A88222B800C1B90059BA002DEC84
:100623008BF084CFCECDFCE5F0CBF97818EF2FFF1C
:10063300EE33FEED33FDEC33FCEB33FB10D70399C4
:100643004004EB99FB0FD8E5E4F9FA227818EF2F71
:10065300FFEE33FEED33FDEC33FCC933C910D70590
:100663009BE99A4007EC9BFCE99AF90FD8E0E4C9AF
:10067300FAE4CCFB2275F010EF2FFFEE33FEED33DF
:10068300FDCC33CCC833C810D7079BEC9AE899400C
:100693000AED9BFDEC9AFCE899F80FD5F0DAE4CD6E
:1006A300FBE4CCFAE4C8F922C3E49FFFE49EFEE432
:1006B3009DFDE49CFC22EB9FF5F0EA9E42F0E99D50
:1006C30042F0E89C45F022E8600FECC313FCED1305
:1006D300FDEE13FEEF13FFD8F122E8600FEFC333F3
:1006E300FFEE33FEED33FDEC33FCD8F122BB010DFD
:1006F300E58229F582E5833AF5830207F85007E995
:100703002582F80207EBBBFE07E92582F8020804FD
:10071300E58229F582E5833AF5830208117401FF26
:100723003395E0FEFDFCA3A3A3E0CF2FF0E58215F4
:100733008270021583E0CE3EF0E5821582700215C9
:1007430083E0CD3DF0E582158270021583E0CC3C59
:10075300F022ECF0A3EDF0A3EEF0A3EFF022A882D9
:100763008583F0D083D08212077812077812077836
:10077300120778E473E493A3C583C5F0C583C8C5A2
:1007830082C8F0A3C583C5F0C583C8C582C822D07B
:1007930083D082F8E4937012740193700DA3A39332
:1007A300F8740193F5828883E473740293B5F006B9
:1007B3007403936860E9A3A3A3A380D8EF4E6012E8
:1007C300EF60010EEDBB010B89828A83F0A3DFFC8E
:1007D300DEFA2289F05007F709DFFCA9F022BBFEFD
:1007E300FCF309DFFCA9F022E6FB08E6F908E6FAC8
:1007F30008E6CBF822E0F8A3E0F9A3E0FAA3E0FBD4
:1008030022E2FB08E2F908E2FA08E2CBF822E493D9
:10081300F8740193F9740293FA740393FB22900220
:1008230031EBF0A3EAF0A3E9F0900230EFF06401BA
:100833006003020A3390000004F0E4A3F0A3F0A3E2
:10084300F0A3F0A3F0A3F0900234F0900234E0FFA1
:10085300C394805014740E2FF582E43400F583E4BE
:10086300F0900234E004F080E2E4900234F090026D
:1008730034E0FFC394805014748E2FF582E4340067
:10088300F583E4F0900234E004F080E2900231E07A
:10089300FBA3E0FAA3E0F912042ED394C040037F34
:1008A300022290000A120447B40104D2BC8002C29F
:1008B300BC12042EFFE598543F4FF598EF64C060D7
:1008C30008EF644060030209AD9000021206F07F56
:1008D300007E607D547C0012061990023512075584
:1008E300E4FFFE7D01FC900235E0F8A3E0F9A3E00C
:1008F300FAA3E0FBC31206B940037F02229002353C
:10090300E0F8A3E0F9A3E0FAA3E0FBC3E49BFFE470
:100913009AFE740199FDE498FC90023512075590F4
:100923000231E0FBA3E0FAA3E0F9900001120447CF
:10093300FB64017038C28E538EFE5389BF5389CF37
:10094300438E40900235E0FCA3E0FDA3E0FEA3E06C
:10095300FF78081206CA8F8D900235A3A3A3E0F592
:100963008BC2AB5389BF538FFDD28E8076EB64026B
:100973007035538EEF438E01538EF7438E049002EE
:1009830035E0FCA3E0FDA3E0FEA3E0FF7808120638
:10099300CA8FD6900235A3A3A3E0F5D753AFFB5379
:1009A3008EF7438E10803C7F0222900231E0FBA33E
:1009B300E0FAA3E0F912042EFF701390000812046A
:1009C30047B40105438E20801A538EDF8015EFB4A0
:1009D3008011900008120447B40105438780800307
:1009E30053877F900231E0FBA3E0FAA3E0F9900084
:1009F30009120447B40104D2AC8002C2AC900007D0
:100A0300120447B40104D29C8002C29C90000B12D2
:100A1300044754C0FFE5A2543F4FF5A290000C12C7
:100A23000447B4010543971080035397EF7F0022D7
:100A3300900230E064026003020B95900007740299
:100A4300F0E4A3F0A3F0A3F0A3F0A3F0A3F09002CB
:100A530034F0900234E0FFC394805014740E2FF5E9
:100A630082E43401F583E4F0900234E004F080E2A0
:100A7300E4900234F0900234E0FFC3948050147485
:100A83008E2FF582E43401F583E4F0900234E00420
:100A9300F080E2900231E0FBA3E0FAA3E0F9120454
:100AA3002EFF64C06008EF64406003020B559000A2
:100AB3000A120447B4010543B501800353B5FE127E
:100AC300042EB4C005439A808003539A7F9000029A
:100AD3001206F07F007E607D547C0012061990029E
:100AE30035120755E4FFFE7D01FC900235E0F8A3C3
:100AF300E0F9A3E0FAA3E0FBC31206B940037F02C7
:100B030022900235E0F8A3E0F9A3E0FAA3E0FBC3E7
:100B1300E49BFFE49AFE740199FDE498FC9002358E
:100B2300120755538EEF538EF7438E04900235E030
:100B3300FCA3E0FDA3E0FEA3E0FF78081206CA8F42
:100B4300D6900235A3A3A3E0F5D753AFFB438E1092
:100B530080037F0222900231E0FBA3E0FAA3E0F9D5
:100B6300900009120447B4010543AF01800353AF5A
:100B7300FE900007120447B40105439A1080035303
:100B83009AEF90000B1204475401FFE5BA54FE4F4D
:100B9300F5BA22900309EBF0A3EAF0A3E9F0E4909D
:100BA3000312F0A3F078147C037D017BFF7A3B7979
:100BB300CCFE7F08120408E490031CF0A3F0781E17
:100BC3007C037D017BFF7A3B79D4FE7F0A12040804
:100BD300E4900328F0A3F0A374C0F0A37401F0E43D
:100BE300A3F0A3F0A3F0A3F0900309E0FBA3E0FAC2
:100BF300A3E0F990000A120447FF90000B12044788
:100C030090031DF07B017A037914123914E49003E5
:100C13001CF090031CE0FFC39408505474142FF588
:100C230082E43403F583E0B4013E90031CE004FE48
:100C3300900329E0FD04F0741E2DF582E43403F5DE
:100C430083EEF074732FF582E43404F583E0FF90B0
:100C53000329E0FE04F0741E2EF582E43403F583C9
:100C6300EFF0900328E004F090031CE004F080A26E
:100C730090031DE064016003020CFE9004DF04F0A6
:100C8300E490031CF090031CE0FFC39404506C90A9
:100C930005B4E0B40F17EF25E025E0242FF582E437
:100CA3003404F5831207610000000F801890031CC1
:100CB300E025E025E0242FF582E43404F5831207D0
:100CC300610000003C90031CE0FB25E025E0248B41
:100CD300F582E43404F58312076100000000EB257C
:100CE300E025E0249BF582E43404F58312076100D8
:100CF30000000090031CE004F0808A900329E024A4
:100D030005FEE43390032CF0A3CEF090030CE0FB3C
:100D1300A3E0FAA3E0F9746812047490032CE0FED4
:100D2300A3E0FD90030CE0FBA3E0FAA3E0F990003D
:100D330001ED120486EE900002120486900309E08E
:100D4300FBA3E0FAA3E0F9900003120529E5F0FF05
:100D530090030CE0FBA3E0FAA3E0F9900003EF1289
:100D63000486900309E0FBA3E0FAA3E0F9900003F3
:100D7300120529FF90030CE0FBA3E0FAA3E0F9902E
:100D83000004EF1204869000057468120486900331
:100D93002AE0FCA3E0FDEC900006120486ED90002F
:100DA30007120486900309E0FBA3E0FAA3E0F9909D
:100DB3000005120529E5F0FF90030CE0FBA3E0FA20
:100DC300A3E0F9900008EF120486900309E0FBA367
:100DD300E0FAA3E0F9900005120529FF90030CE067
:100DE300FBA3E0FAA3E0F9900009EF120486900355
:100DF30028E090000A120486E490031CF090032973
:100E0300E0FF90031CE0FEC39F502E741E2EF5825C
:100E1300E43403F583E0FFEE240BFDE433FC90039D
:100E23000CE0FBA3E0FAA3E0F98D828C83EF1204BC
:100E33008690031CE004F080C490032CA3E02405F7
:100E4300900312F090032CE0FEA3E0FF90030CE06C
:100E5300FBA3E0FAA3E02406F9E43AFA78147C034E
:100E63007D011204087B017A03791490032CA3E01B
:100E7300FD123500EFF4FF900312E0FE2401FDE4C0
:100E830033FC90030CE0FBA3E0FAA3E0F98D828C22
:100E930083EF120486EEF582758300A3A374161202
:100EA300048690032CA3E02408FF90030FE0FBA328
:100EB300E0FAA3E0F9EF020474900224EFF0E4A354
:100EC300F0A3F0A31207610000000090022B1207A9
:100ED3006100000000123AE0900225EFF090022436
:100EE300E0FF2473F582E43404F583E0B4010812CF
:100EF3003A517FBB023A517F11123A51900224E0DA
:100F0300FF123A51900224E025E025E0248BF5827C
:100F1300E43404F583E0FCA3E0FDA3E0FEA3E0FFDB
:100F2300E47B5FFAF9F812058EE47B64FAF9F812B0
:100F33000619900224E025E025E024ABF582E43491
:100F430004F5831207551233C290022712075590F6
:100F53000225E075F00AA42446FFE435F0FEE4FC24
:100F6300FD900227E0F8A3E0F9A3E0FAA3E0FB1267
:100F7300058EE47B64FAF9F8120619900224E0FB6B
:100F830025E025E0249BF582E43404F5831207551C
:100F9300EB25E025E0248BF582E43404F583E0FCC3
:100FA300A3E0FDA3E0FEA3E0FFEB25E025E0249B07
:100FB300F582E43404F583E0F8A3E0F9A3E0FAA3AF
:100FC300E0FBC31206B94068900224E0FB25E0254C
:100FD300E0249BF582E43404F583E0FCA3E0FDA365
:100FE300E0FEA3E0FFEB25E025E0248BF582E4346B
:100FF30004F5831207559005B4E0900224B40F184A
:10100300E025E025E02453F582E43404F583120758
:10101300610000000A0210D3E025E025E02453F527
:1010230082E43404F5831207610000003C0210D30C
:10103300900224E0FF25E025E024ABF582E43404AC
:10104300F583E0F8A3E0F9A3E0FAA3E0FBEF25E0E2
:1010530025E0249BF582E43404F583E0FCA3E0FD62
:10106300A3E0FEA3E0FFC31206B95074900224E08C
:10107300FB25E025E0249BF582E43404F583E0FCC2
:10108300A3E0FDA3E0FEA3E0FFEB25E025E0248B36
:10109300F582E43404F5831207559005B4E0900219
:1010A30024B40F17E025E025E02453F582E434044B
:1010B300F5831207610000000A8015E025E025E0B2
:1010C3002453F582E43404F5831207610000003CE5
:1010D300900224E02473F582E43404F583E4F022DF
:1010E300900224E0FF25E025E0249BF582E434040C
:1010F300F583E0F8A3E0F9A3E0FAA3E0FBEF25E032
:1011030025E024ABF582E43404F583E0FCA3E0FDA1
:10111300A3E0FEA3E0C39BFFEE9AFEED99FDEC98DE
:10112300FCE4FB7A0AF9F8C31206B950727F551230
:101133003A51900224E025E025E02453F582E4347B
:1011430004F583E0FCA3E0FDA3E0FEA3E0FFE4FBE2
:10115300FAF9F8C31206B970469005B4E090022478
:10116300B40F17E025E025E02453F582E43404F5B9
:10117300831207610000000A8015E025E025E024C2
:1011830053F582E43404F5831207610000003C90B8
:101193000224E02473F582E43404F5837401F0221D
:1011A3009004E0EFF0E4A3F0A3F078E37C047D0186
:1011B3007BFF7A3C79BDFE7F031204089004E6129C
:1011C3000761000000009004EA12076100000000BC
:1011D3009004EE1207610000000078F27C047D01A8
:1011E3007BFF7A3C79C07E007F281204081233C249
:1011F3009004EE1207559004E0E075F003A424D3A5
:10120300F9740435F0FA7B011238E09004E1EFF051
:10121300701D9004E0E075F003A424D3F974043541
:10122300F0FA7B019004EEA3A3A3E0FD12325C90DD
:1012330004E0E075F003A424D3F9740435F0FA7BD9
:10124300011238E09004E1EFF064016003021393AC
:101253009004E0E075F003A424D3F9740435F0FAA4
:101263007B01C003900595EBF0A37404F0A374F223
:10127300F0D00312342EE49004E2F09004E2E0FF95
:10128300C3940A50419004E6E0F8A3E0F9A3E0FA1E
:10129300A3E0FBEF25E025E024F2F582E43404F536
:1012A30083E0FCA3E0FDA3E0FEA3E0FFEB2FFFEA56
:1012B3003EFEE93DFDE83CFC9004E6120755900430
:1012C300E2E004F080B5E47B0AFAF9F89004E6E082
:1012D300FCA3E0FDA3E0FEA3E0FF1206199004EADD
:1012E300120755E47F5FFEFDFC9004EAE0F8A3E0FB
:1012F300F9A3E0FAA3E0FB12058EE47B64FAF9F8A4
:101303001206199004EA1207559004EAE0FCA3E0E0
:10131300FDA3E0FEA3E0FFA3E0F8A3E0F9A3E0FA56
:10132300A3E0FBC31206B9505290051AE0FCA3E0F8
:10133300FDA3E0FEA3E0FF78101206CA9004E3EFDA
:10134300F090051AE0FCA3E0FDA3E0FEA3E0FF7824
:10135300081206CA9004E4EFF090051AE0FCA3E03B
:10136300FDA3E0FEA3E0FFE49004E5EFF09004E0CA
:10137300E0FF7B017A0479E30231629004E0E075D7
:10138300F003A424D3F9740435F0FA7B0112334E2D
:1013930022E4900212F0F0900212E0FFC3940440A2
:1013A30003021539EF25E025E0243FF582E43404F8
:1013B300F583E0FCA3E0FDA3E0FEA3E0FFE4FBFA7A
:1013C300F9F8C31206B9503C900212E0FB25E02560
:1013D300E0243FF582E43404F583E0FCA3E0FDA3BD
:1013E300E0FEA3E024FFFFEE34FFFEED34FFFDEC4F
:1013F30034FFFCEB25E025E0243FF582E43404F5DB
:1014030083120755900212E025E025E02453F5826C
:10141300E43404F583E0FCA3E0FDA3E0FEA3E0FFD6
:10142300E4FBFAF9F8C31206B9503C900212E0FB50
:1014330025E025E02453F582E43404F583E0FCA39E
:10144300E0FDA3E0FEA3E024FFFFEE34FFFEED3456
:10145300FFFDEC34FFFCEB25E025E02453F582E4AB
:101463003404F583120755900212E025E025E024A9
:1014730063F582E43404F583E0FCA3E0FDA3E0FE1E
:10148300A3E0FFE4FBFAF9F8C31206B9503C90025B
:1014930012E0FB25E025E02463F582E43404F583C0
:1014A300E0FCA3E0FDA3E0FEA3E024FFFFEE34FF96
:1014B300FEED34FFFDEC34FFFCEB25E025E0246377
:1014C300F582E43404F583120755900212E025E017
:1014D30025E0242FF582E43404F583E0FCA3E0FD4A
:1014E300A3E0FEA3E0FFE4FBFAF9F8C31206B95048
:1014F3003C900212E0FB25E025E0242FF582E43442
:1015030004F583E0FCA3E0FDA3E0FEA3E024FFFFDA
:10151300EE34FFFEED34FFFDEC34FFFCEB25E0255C
:10152300E0242FF582E43404F58312075590021268
:10153300E004F002139AE4FFFEFDFC90044FE0F890
:10154300A3E0F9A3E0FAA3E0FBD31206B94022908B
:10155300044FE0FCA3E0FDA3E0FEA3E024FFFFEEC5
:1015630034FFFEED34FFFDEC34FFFC90044F120713
:101573005522EFD3940540037F012212042EFED39C
:10158300940340037F0222EF7041EE700B90000141
:10159300120447F45293529412042EB4010B900098
:1015A300011204474293F4529412042EFEB4020A29
:1015B30090000112044742934294EEB4030D90004D
:1015C30001120447FEF45293EE4294EF6401704318
:1015D30012042EFE700B900001120447F452915234
:1015E30092EEB4010B9000011204474291F452921F
:1015F30012042EB4020A900001120447429142924F
:1016030012042EB4030D900001120447FEF452910C
:10161300EE4292EF6402704312042EFE700B9000B0
:1016230001120447F452955296EEB4010B90000157
:101633001204474295F4529612042EB4020A900003
:10164300011204474295429612042EB4030D9000F2
:1016530001120447FEF45295EE4296EF6403704381
:1016630012042EFE700B900001120447F452B15283
:10167300B2EEB4010B90000112044742B1F452B22E
:1016830012042EB4020A90000112044742B142B27E
:1016930012042EB4030D900001120447FEF452B15C
:1016A300EE42B2EF6404704312042EFE700B9000FE
:1016B30001120447F452B352B4EEB4010B9000018B
:1016C30012044742B3F452B412042EB4020A900037
:1016D3000112044742B342B412042EB4030D900026
:1016E30001120447FEF452B3EE42B4EF64057043B3
:1016F30012042EFF700B900001120447F452C952DA
:10170300CAEFB4010B90000112044742C9F452CA54
:1017130012042EB4020A90000112044742C942CABD
:1017230012042EB4030D900001120447FFF452C9B2
:10173300EF42CA7F0022900309EBF0A3EAF0A3E98A
:10174300F0E490030FF0A3F0A3F0900309E0FBA3F0
:10175300E0FAA3E0F912042EFF90030CE0FBA3E0F0
:10176300FAA3E0F9EF120474900309E0FBA3E0FA93
:10177300A3E0F9900002120447FE9000011204470F
:10178300FDEDFF90030CE0FBA3E0FAA3E0F990006A
:1017930001EE8FF0120561900309E0FBA3E0FAA3C9
:1017A300E0F9900003120447FE900004120447FD81
:1017B300EDFF90030CE0FBA3E0FAA3E0F990000334
:1017C300EE8FF0120561900309E0FBA3E0FAA3E0BA
:1017D300F9900005120447FE900006120447FDED40
:1017E300FF90030CE0FBA3E0FAA3E0F9900005EE01
:1017F3008FF0120561900309E0FBA3E0FAA3E0F97F
:10180300900007120447FF90030CE0FBA3E0FAA348
:10181300E0F9900007EF120486900309E0FBA3E0D0
:10182300FAA3E0F9900008120447FE90000912049D
:1018330047FDEDFF90030CE0FBA3E0FAA3E0F99072
:101843000008EE8FF012056190000112052924FEB5
:10185300FF90030FF07E00900309E0FBA3E0FAA3DF
:10186300E0240AF9E43AFAC003C002C001A3E0FB92
:10187300A3E0FAA3E0240AF9E43AA801FCAD03D0FB
:1018830001D002D00312040890030FE0240AF09061
:101893000309E0FBA3E0FAA3E0F990030FE0FF04E0
:1018A300F08F82758300120447FF90030CE0FBA3C3
:1018B300E0FAA3E0F990003CEF120486900309E0FC
:1018C300FBA3E0FAA3E0F990030FE0F58275830030
:1018D300120447FF90030CE0FBA3E0FAA3E0F990A6
:1018E300003DEF12048690003EE402048690022B32
:1018F300EBF0A3EAF0A3E9F0AD07EDD394034003C3
:10190300021A8EED6403704CC2DEF5F9F5E990021C
:101913002BE0FBA3E0FAA3E0F912042EFFE5A254A7
:10192300CF4FF5A2900001120447FFE5D954F14FC0
:10193300F5D99000041204475401FFE5D954FE4F32
:10194300F5D9900005120447B40104D2BF8002C246
:10195300BFD2DE2290022BE0FBA3E0FAA3E0240433
:10196300F9E43AFA12042E543112047490022BE073
:10197300FBA3E0FAA3E0F9900002120447C39448E2
:10198300400FE92404F9E43AFA12042E54CF120466
:1019930074ED704F90022BE0FBA3E0FAA3E0F99003
:1019A3000004120447FF900002120447FE4FF5DAC9
:1019B300900003120447FFE5F2543F4FF5F2900005
:1019C30006120529FBAAF090053CEAF0A3EBF0C24E
:1019D30000900537EEF090053AEAF0A3EBF0F5EA54
:1019E300EAF5FAED6401704F90022BE0FBA3E0FAF5
:1019F300A3E0F9900004120447FF90000212044789
:101A0300FE4FF5DB900003120447FFE5F3543F4F0D
:101A1300F5F3900006120529FBAAF0900540EAF0C1
:101A2300A3EBF0C201900538EEF090053EEAF0A377
:101A3300EBF0F5EBEAF5FBED6402704F90022BE05F
:101A4300FBA3E0FAA3E0F9900004120447FF90001F
:101A530002120447FE4FF5DC900003120447FFE532
:101A6300F4543F4FF5F4900006120529FDACF090B5
:101A73000544ECF0A3EDF0C202900539EEF09005B9
:101A830042ECF0A3EDF0F5ECECF5FC22AD07EDD361
:101A9300940240037F0122ED6003021B23C28C905A
:101AA3000002120447B40104D2A98002C2A9900023
:101AB30001120447B40104D2B98002C2B912042E40
:101AC300FED3940340037F0222E58954FC4EF5893B
:101AD300900003120447FFB40103538E7FEF70039A
:101AE300438E80EFB4020543890480035389FB903E
:101AF3000004120447B40105438F018003538FFE92
:101B0300900005120529E5F0F58C900005120529D2
:101B1300F58A900007120447B40102D28C7F002299
:101B2300ED64016003021BAEC28E900002120447F3
:101B3300B40104D2AB8002C2AB900001120447B4DB
:101B43000104D2BB8002C2BB12042EFEC394034025
:101B5300037F0222E58954CF4EF5899000031204D6
:101B630047FFB40103538EBFEF7003438E40EFB4BE
:101B7300020543894080035389BF90000412044740
:101B8300B40105438F028003538FFD9000051205B6
:101B930029E5F0F58D900005120529F58B900007D6
:101BA300120447B40102D28E7F0022ED64027074E6
:101BB300538EEF900002120447B4010543AF048033
:101BC3000353AFFB900003120447FED39402400378
:101BD3007F0222EEB40103538EFB900003120447ED
:101BE3007003438E04900003120447B40205438E2E
:101BF300088003538EF7900004120447B401054391
:101C03008F048003538FFB900005120529FDACF070
:101C1300ECF5D68DD7900007120447B40103438E29
:101C2300107F00227F0222900223EFF012377B9075
:101C33000223E0FE247FF582E43404F583EFF0749D
:101C4300772EF582E43404F583E0FF747B2EF5826E
:101C5300E43404F583EFF0123498900223E0FE2479
:101C630077F582E43404F583EFF0747B2EF582E498
:101C73003404F583E0FF74772EF582E43404F583AE
:101C8300E0FE6F7003021D51EE64016003021D1636
:101C93009005B4E0900223B40F17E025E025E0247B
:101CA3002FF582E43404F5831207610000000A80F3
:101CB30015E025E025E0242FF582E43404F58312B2
:101CC30007610000003C7FA1123A51900223E0FB20
:101CD30025E025E024ABF582E43404F583120761A3
:101CE30000000000EB25E025E0249BF582E43404AA
:101CF300F58312076100000000900223E025E02530
:101D0300E0248BF582E43404F583120761000000BC
:101D130000803B9005B4E0900223B40F17E025E068
:101D230025E0243FF582E43404F5831207610000C3
:101D3300000A8015E025E025E0243FF582E4340421
:101D4300F5831207610000003C7FA2123A51900212
:101D530023E0FF2477F582E43404F583E0B4012C17
:101D6300EF25E025E0242FF582E43404F583E0FC3D
:101D7300A3E0FDA3E0FEA3E0FFE4FBFAF9F8C3123E
:101D830006B97037900223E0FF020EBC900223E0F5
:101D930025E025E0243FF582E43404F583E0FCA349
:101DA300E0FDA3E0FEA3E0FFE4FBFAF9F8C31206AB
:101DB300B97008900223E0FF12254622E490021333
:101DC300F0A3F0A3F0A304F078177C02FD7BFF7A65
:101DD3003C79FE7E007F03120408E490021AF07837
:101DE3001B7C027D017BFF7A3D7901FE7F04120497
:101DF3000890021F12076100000000123B3F123BD4
:101E0300C6123AFC1237389005B4EFF0123A5190EB
:101E130005B4E0640F600C1238AB7D807C00E4FFF6
:101E2300122C02E4900215F0900215E0FFC3940413
:101E3300501AEF75F003A424D3F9740435F0FA7B38
:101E43000112002E900215E004F080DCE4FD7F0710
:101E5300122CB0E4900215F012002690021AE0143E
:101E6300601414606514606D24037077900215E0AC
:101E7300FF1238758057E47FE87E03FDFC90041E53
:101E8300E0F8A3E0F9A3E0FAA3E0FBC31206B9402C
:101E93001CE4FFFEFDFC90041E120755E4FBFAF957
:101EA300F8C31206B97F0070027F0180027F00EF42
:101EB3006016900215E0FF121C2A900215E004F050
:101EC300E0D394034002E4F08003122B5490021AEF
:101ED300E004F0800E7B017A047973122A97E49070
:101EE300021AF0E47FF47E01FDFC90041AE0F8A3EB
:101EF300E0F9A3E0FAA3E0FBC31206B9401CE4FF38
:101F0300FEFDFC90041A120755E4FBFAF9F8C3121C
:101F130006B97F0070027F0180027F00EF70030229
:101F23001E5B7F041239D5BF010AE4FD7F06122C24
:101F3300B0021E5B7D017F06122CB0021E5B900374
:101F43008AEBF0A3EAF0A3E9F0E49003CCF0A3F06A
:101F5300A3F0A3F078D07C037D017BFF7A3C794228
:101F6300FE7F32120408E4900402F0A3F0A3F0A36E
:101F7300F090020EE0640160030220A37F1EFEFDC9
:101F8300FC900422E0F8A3E0F9A3E0FAA3E0FBC38A
:101F93001206B9401CE4FFFEFDFC90042212075513
:101FA300E4FBFAF9F8C31206B97F0070027F0180DF
:101FB300027F00EF70030220A390008EE0900402E2
:101FC300F0900090E0FE90008FE0FDEDFF9003CCD9
:101FD300EEF0A3EFF0E4A3F0A3F09003CDE0240729
:101FE300FF9003CCE03400FE9003CEE0FCA3E0FDC1
:101FF300C39FEC9E502AAF05748F2FF582E4340003
:10200300F583E0FE74D02FF582E43403F583EEF01C
:102013009003CFE004F070C29003CEE004F080BAE6
:102023009003CCA3E0FFFD2496F582E43400F5830E
:10203300E0900404F074972DF582E43400F583E016
:10204300900403F07B017A0379D0EF2407FD123566
:1020530000900405EFF0900402E0B4682DA3E0B40F
:102063001628900405E0FF900404E0B5071C9003D4
:102073008AE0FBA3E0FAA3E0F8AC02AD037B017AAC
:1020830000798E7E007F80120408E490020EF090A7
:102093000004F0FE7F80FD7B017A00798E1207BF7A
:1020A30022900309EBF0A3EAF0A3E9F0E490034BD9
:1020B300F0A3F0A3F0A3F0784F7C037D017BFF7ABC
:1020C3003C7974FE7F32120408E4900381F0A3F09C
:1020D300A3F0A3F090020FE0640160030221FB7FF1
:1020E3001EFEFDFC900426E0F8A3E0F9A3E0FAA3AA
:1020F300E0FBC31206B9401CE4FFFEFDFC9004267E
:10210300120755E4FBFAF9F8C31206B97F0070020F
:102113007F0180027F00EF70030221FB90018EE0BC
:10212300900381F0900190E0FE90018FE0FDEDFFC0
:1021330090034BEEF0A3EFF0E4A3F0A3F090034B76
:10214300E0FEA3E0FFA3E0FCA3E0FDC39FEC9E50F1
:102153002AAF0574962FF582E43401F583E0FE740B
:102163004F2FF582E43403F583EEF090034EE00441
:10217300F070CA90034DE004F080C290034BA3E0DB
:10218300FD2496F582E43401F583E0900383F07433
:10219300972DF582E43401F583E0900382F07B010F
:1021A3007A03794F123500900384EFF0900381E0B6
:1021B3006468702EA3E0B41629900384E0F4FF90C2
:1021C3000383E0B5071C900309E0FBA3E0FAA3E057
:1021D300F8AC02AD037B017A01798E7E007F801219
:1021E3000408E490020FF090000BF0FE7F80FD7B6B
:1021F300017A01798E1207BF224105B40042042AF5
:10220300000041042C0041042D0041042E00500421
:102213002F0000000000000000000000000000008C
:102223000050043F00000000000000000000000018
:102233000000000044044F0000000050045300005D
:102243000000000000000000000000000000500437
:102253006300000000000000000000000000000018
:1022630000602404060000000000000000000000DD
:10227300000000000000000000000000000000005B
:102283000000000000000000004404730000000090
:102293004404770000000044047B00000000440471
:1022A3007F00000000440483000000004404870012
:1022B30000000050048B000000000000000000003C
:1022C30000000000000050049B000000000000001C
:1022D3000000000000000000005004AB00000000FC
:1022E3000000000000000000000000004404BB00E8
:1022F3000000005004BF00000000000000000000C8
:102303000000000000004404CF000000004104DF8F
:102313000041020E0041020F0000900574EFF0A38C
:1023230012076100000000900579120761000000A8
:102333000090057512076100000000E47F0AFEFDAE
:10234300FC900575E0F8A3E0F9A3E0FAA3E0FBC372
:102353001206B940030224371233C2900574E0FB1E
:1023630025E025E024BFF582E43404F58312075504
:10237300EB25E025E024BFF582E43404F583E0FC9B
:10238300A3E0FDA3E0FEA3E0FFE4FB7A04F9F8D3A6
:102393001206B9405F900579E0FCA3E0FDA3E0FEDF
:1023A300A3E02401FFE43EFEE43DFDE43CFC900594
:1023B30079120755E47F08FEFDFC900579E0F8A348
:1023C300E0F9A3E0FAA3E0FBD31206B94044900579
:1023D3007912076100000000900574E024CFF582B4
:1023E300E43404F5837401F07F33123A5190057499
:1023F300E0FF801B90057912076100000000900543
:1024030074E024CFF582E43404F583E4F07F2212F0
:102413003A51900575E0FCA3E0FDA3E0FEA3E024A0
:1024230001FFE43EFEE43DFDE43CFC90057512072C
:102433005502233E22C0E0C0F0C083C082C0D075E5
:10244300D000C000C001C002C003C004C005C00664
:10245300C007900210E4F0A3F0900210F0A3F090F4
:102463000210E0FEA3E0FFC39409EE94005065EF71
:102473007802C333CE33CED8F92406F58274043EF2
:10248300F583E0FCA3E0FDA3E0FEA3E02401FFE469
:102493003EFEE43DFDE43CFCC004C005C006C007AD
:1024A300900210E0FEA3E07802C333CE33CED8F916
:1024B3002406F58274043EF583D007D006D005D0F8
:1024C30004120755900211E004F07093900210E09B
:1024D30004F0808B90042BE004F0700690042AE053
:1024E30004F0120009D390042BE094E790042AE04F
:1024F30094034034E4F0A3F0A3E004F012139490A7
:10250300042CE0D3943B4020E4F0A3E004F0120059
:102513000AE0D3943B4011E4F0A3E004F012001A64
:10252300E0D394174002E4F0D007D006D005D004DE
:10253300D003D002D001D000D0D0D082D083D0F04D
:10254300D0E032900224EFF0FBA3120761000000F9
:102553000090022912076100000000E4FEEB24034F
:10256300FF12355E123A789002251207557F337EAB
:10257300337DB37C3F900225E0F8A3E0F9A3E0FAB2
:10258300A3E0FB12020C60734071900224E025E08B
:1025930025E02463F582E43404F583E0FCA3E0FD45
:1025A300A3E0FEA3E0FFE4FBFAF9F8C31206B96067
:1025B300030226439005B4E0900224B40F17E025EC
:1025C300E025E02463F582E43404F5831207610017
:1025D30000000A8015E025E025E02463F582E43459
:1025E30004F5831207610000003C900224E0247389
:1025F300F582E43404F5837401F0229005B4E0908D
:102603000224B40F17E025E025E02463F582E434C7
:1026130004F5831207610000000A8015E025E02518
:10262300E02463F582E43404F583120761000000BB
:102633003C900224E02473F582E43404F583E4F04F
:1026430022AB0790055D1207610000000090056151
:102653001207610000000090056512076100000089
:1026630000E4900569F0A3F0AF031232D890055D42
:10267300120755E47F5AFEFDFC90055DE0F8A3E0E8
:10268300F9A3E0FAA3E0FB12058EE47B64FAF9F800
:1026930012061990055D120755E490056AF012338E
:1026A300C29005651207557F027E007D007C0012F3
:1026B30036F390055DE0FCA3E0FDA3E0FEA3E0FF9D
:1026C300900565E0F8A3E0F9A3E0FAA3E0FBC312E9
:1026D30006B9504B900561E0FCA3E0FDA3E0FEA327
:1026E300E02401FFE43EFEE43DFDE43CFC90056193
:1026F300120755E47F08FEFDFC900561E0F8A3E0B6
:10270300F9A3E0FAA3E0FBD31206B9401C900561DC
:10271300120761000000009005697401F0800A90BF
:1027230005611207610000000090056AE004F0E013
:10273300C3940A50030226A1900569E0FF22900585
:102743004CEFF0A31207610000000090055112073F
:10275300610000000090055512076100000000E4CD
:10276300900559F0785A7C057D017BFF7A3C79EB23
:10277300FE7F03120408E4900559F01233C290055A
:102783004D1207557F027E007D007C001236F390C8
:102793000555E0FCA3E0FDA3E0FEA3E0FF90054D9B
:1027A300E0F8A3E0F9A3E0FAA3E0FBEF2BFFEE3A96
:1027B300FEED39FDEC38FC9005551207559005598F
:1027C300E004F0E0C3940A40B2E47B0AFAF9F8901B
:1027D3000555E0FCA3E0FDA3E0FEA3E0FF1206190C
:1027E300900551120755900551E0FCA3E0FDA3E0CD
:1027F300FEA3E0FF78101206CA90055AEFF0900589
:1028030051E0FCA3E0FDA3E0FEA3E0FF780812067D
:10281300CA90055BEFF0900551E0FCA3E0FDA3E057
:10282300FEA3E0FFE490055CEFF07F5A0230E590F1
:102833000598EFF078997C057D017BFF7A3D79055A
:102843007E007F05120408900598E0146039146037
:102853005F1470030228DC240360030229087B0150
:102863007A057999900230E4F0A37403F07F007E37
:10287300011237BC7B017A05799990058AE4F0A3AC
:102883007403F07F2080797B017A05799990023077
:10289300E4F0A37403F07F047E011237BC7B017A5A
:1028A30005799990058AE4F0A37403F07F2480509E
:1028B3007B017A057999900230E4F0A37403F07FE9
:1028C300087E011237BC7B017A05799990058AE469
:1028D300F0A37403F07F2880277B017A0579999010
:1028E3000230E4F0A37403F07F0B7E011237BC7B4C
:1028F300017A05799990058AE4F0A37403F07F2B9C
:102903007E011237FB22C0E0C0F0C083C082C0D07A
:1029130075D000C000C001C002C003C004C005C020
:1029230006C007E59A30E057539AFE90000DE07019
:102933004E90020F04F0E4FFFEFDFC900426E0F845
:10294300A3E0F9A3E0FAA3E0FBC31206B9400BE44A
:10295300FFFEFDFC90042612075590000BE0FF04D8
:10296300F0748E2FF582E43401F583E59BF090003B
:102973000BE0C394804002E4F090000C7405F0E592
:102983009A30E131539AFD900009E0FF900008E08E
:10299300FE6F601C740E2EF582E43401F583E0F5BE
:1029A3009B900008E004F0C394804009E4F08005A4
:1029B30090000AE4F0D007D006D005D004D003D0AD
:1029C30002D001D000D0D0D082D083D0F0D0E0327A
:1029D300C0E0C0F0C083C082C0D075D000C000C0CA
:1029E30001C002C003C004C005C006C0073098562A
:1029F300C298900006E0704E90020E04F0E4FFFED1
:102A0300FDFC900422E0F8A3E0F9A3E0FAA3E0FBC5
:102A1300C31206B9400BE4FFFEFDFC90042212072B
:102A230055900004E0FF04F0748E2FF582E4340027
:102A3300F583E599F0900004E0C394804002E4F04C
:102A430090000C7405F0309930C299900002E0FFB9
:102A5300900001E0FE6F601C740E2EF582E43400DA
:102A6300F583E0F599900001E004F0C394804009F8
:102A7300E4F08005900003E4F0D007D006D005D041
:102A830004D003D002D001D000D0D0D082D083D0E4
:102A9300F0D0E032900223EBF0A3EAF0A3E9F09048
:102AA3000223E0FBA3E0FAA3E0F912042EB4010B26
:102AB300E4FD7F02122CB07D0180097D017F0212AB
:102AC3002CB0E4FD7F08122CB0900223E0FBA3E0BE
:102AD300FAA3E0F9900001120447B4010BE4FD7F6F
:102AE30003122CB07D0180097D017F03122CB0E419
:102AF300FD7F09122CB0900223E0FBA3E0FAA3E0D0
:102B0300F9900002120447B4010BE4FD7F04122C78
:102B1300B07D0180097D017F04122CB0E4FD7F0AA2
:102B2300122CB0900223E0FBA3E0FAA3E0F990009B
:102B330003120447B4010BE4FD7F05122CB07D01A1
:102B430080097D017F05122CB0E4FD7F0B122CB0B0
:102B53002278A17C027D017BFF7A3B79DE7E007FB8
:102B63003212040878D37C027D017BFF7A3C791012
:102B73007E007F32120408E4900305F0A3F0A3F073
:102B8300A3F0FE7F3FFD7B017A0279621207BF7BD0
:102B9300017A0279A11220A490030C7401F0A374AA
:102BA30002F0A37423F07B017A0279A11217399002
:102BB300022BE0FEA3E08EF01207922BC640010029
:102BC300002C01900224E07004A3E06404702F7BC6
:102BD3000190030C04F0A37402F0A374D3F0A3EBED
:102BE300F0A37403F0A37405F07A027923120B9611
:102BF3007B017A0279D3900305E0FD12365F22EF61
:102C03007034D3ED9450EC940F40047C0F7D50C38B
:102C1300ED9450EC940050047C007D50C2DE90058E
:102C23003CECF0A3EDF0C374A09D900547F0740F46
:102C33009C9005468073EF64017034D3ED9468EC87
:102C4300940B40047C0B7D68C3ED9450EC940050CE
:102C5300047C007D50C2DE900540ECF0A3EDF0C390
:102C630074B89D900549F0740B9C900548803AEF29
:102C730064027038D3ED9480EC940740047C077DA4
:102C830080C3ED9450EC940050047C007D50C2DE70
:102C9300900544ECF0A3EDF0AE04FFC374D09F9015
:102CA300054BF074079E90054AF0D2DE22EFB40C78
:102CB300004003022D5B902CC0F8282873022CE4FB
:102CC300022CEE022CF8022D02022D0C022D16020C
:102CD3002D20022D2A022D34022D3E022D48022DD5
:102CE30052EDB40103D2CC22C2CC22EDB40103D203
:102CF300CD22C2CD22EDB40103D28022C28022EDC7
:102D0300B40103D2A722C2A722EDB40103D2A622A3
:102D1300C2A622EDB40103D2A522C2A522EDB401BD
:102D230003D2A422C2A422EDB40103D29222C292FE
:102D330022EDB40103D28122C28122EDB40103D278
:102D43008222C28222EDB40103D28322C28322ED06
:102D5300B40103D2B322C2B32290051AEFF0E4A365
:102D6300F0A3F0781D7C057D017BFF7A3C79A6FEFC
:102D73007F14120408E4900531F0A3F0A312076155
:102D830000000000E4900531F0A3F090051AE0FF85
:102D930012355E90051BEEF0A3EFF0900533E0F8DB
:102DA300A3E0F9A3E0FAA3E0FB90051BE0FEA3E098
:102DB300FFE4FCFDEB2FFFEA3EFEED39FDEC38FCB2
:102DC300900533120755900532E004F07006900524
:102DD30031E004F0C3900532E0940A900531E094A9
:102DE3000040A8E47B0AFAF9F8900533E0FCA3E07D
:102DF300FDA3E0FEA3E0FF12061990051BEEF0A36E
:102E0300EFF022C0E0C083C082C0D075D000C006FE
:102E1300C00730D82AC2D830A50590053C8003905E
:102E23000546E0FEA3E0FF90053BE02FF090053A56
:102E3300E03EF090053AE0FEA3E0F5EAEEF5FA3065
:102E4300D92AC2D930A6059005408003900548E0F1
:102E5300FEA3E0FF90053FE02FF090053EE03EF03B
:102E630090053EE0FEA3E0F5EBEEF5FB30DA2AC277
:102E7300DA30A705900544800390054AE0FEA3E0FD
:102E8300FF900543E02FF0900542E03EF0900542AD
:102E9300E0FEA3E0F5ECEEF5FCD007D006D0D0D0F1
:102EA30082D083D0E03290057DEFF0A3EBF0A3EA6C
:102EB300F0A3E9F0E4900582F078837C057D017B43
:102EC300FF7A3C79F3FE7F02120408C2A0900583C7
:102ED30074EAF0A374E5F0900583E0FF123A0090E2
:102EE3000584E0FF123A0090057DE04480FF123A2A
:102EF30000E4900582F0900581E0FFA3E0FEC39F0C
:102F0300501F90057EE0FBA3E0FAA3E0F98E8275E3
:102F13008300120447FF123A00900582E004F08018
:102F2300D590058374EAF0A374DCF0900583E0FF89
:102F3300123A00900584E0FF123A00D2A0227B01EE
:102F43009002377403F07F22900233EFF0A3EBF08B
:102F5300A3EAF0A3E9F0E4900238F078397C027D2B
:102F6300017BFF7A3C79EEFE7F05120408C2A09034
:102F73000233E0FF123A00900237E0900239F0E4A6
:102F8300900238F0900237E0FFA3E0C39F5039125C
:102F930036AE900234E0FBA3E0FAA3E0F9900238E6
:102FA300E0FEF582758300EF1204868E827583003E
:102FB300120447FF74392EF582E43402F583EFF0EF
:102FC300900238E004F080BCD2A022787FE4F6D8E7
:102FD300FD758120023015021DBFE493A3F8E4932D
:102FE300A34003F68001F208DFF48029E493A3F8F9
:102FF3005407240CC8C333C4540F4420C88340046B
:10300300F456800146F6DFE4800B01020408102029
:1030130040809021FCE47E019360BCA3FF543F30C9
:10302300E509541FFEE493A360010ECF54C025E0CD
:1030330060A840B8E493A3FAE493A3F8E493A3C885
:10304300C582C8CAC583CAF0A3C8C582C8CAC58316
:10305300CADFE9DEE780BEE490056BF0A3F0786D8C
:103063007C057D017BFF7A3C79FBFE7F031204081C
:10307300E4FF900570120761000000007A05796D86
:10308300122F4190056DE0FF90056BE4F0A3EFF084
:10309300E0FE90056EE07C002400FFEC3EFE900510
:1030A3006BF0A3EFF0FDAC06E412027E7B007AC066
:1030B30079C078441200669005701207557F11128B
:1030C3003A5190056BE0FF123A5190056BA3E0FF74
:1030D300123A51900570E0FCA3E0FDA3E0FEA3E0EB
:1030E300FF229005A9EBF0A3EAF0A3E9F0EF146047
:1030F3002214603714604C240370639005A9E0FB2D
:10310300A3E0FAA3E0F990058AE4F0A37403F07F47
:103113000080469005A9E0FBA3E0FAA3E0F990053F
:103123008AE4F0A37403F07F04802E9005A9E0FBEA
:10313300A3E0FAA3E0F990058AE4F0A37403F07F17
:103143000880169005A9E0FBA3E0FAA3E0F9900537
:103153008AE4F0A37403F07F0B7E011237FB229005
:1031630005ACEBF0A3EAF0A3E9F0EF1460221460DE
:103173003714604C240370639005ACE0FBA3E0FAC2
:10318300A3E0F990058AE4F0A37403F07F2080465E
:103193009005ACE0FBA3E0FAA3E0F990058AE4F024
:1031A300A37403F07F24802E9005ACE0FBA3E0FA28
:1031B300A3E0F990058AE4F0A37403F07F28801656
:1031C3009005ACE0FBA3E0FAA3E0F990058AE4F0F4
:1031D300A37403F07F2B7E011237FB22900228EBAE
:1031E300F0A3EAF0A3E9F0EF14602214603714604F
:1031F3004C24037063900228E0FBA3E0FAA3E0F9F8
:10320300900230E4F0A37403F07F208046900228FC
:10321300E0FBA3E0FAA3E0F9900230E4F0A3740327
:10322300F07F24802E900228E0FBA3E0FAA3E0F9CC
:10323300900230E4F0A37403F07F288016900228F4
:10324300E0FBA3E0FAA3E0F9900230E4F0A37403F7
:10325300F07F2B7E011237BC229005A1EDF0900583
:103263009EEBF0A3EAF0A3E9F090000112044724D7
:1032730001FFE433FE7C007D0B1204A890059EE061
:10328300FBA3E0FAA3E0F912042EB505037F0022A5
:103293009005A1E0FF900001120447FD7C00E924A2
:1032A30002F9E43AFAE92DF9EC3AFAEF12047490D0
:1032B300059EE0FBA3E0FAA3E0F9900001120447A6
:1032C3002401FFE433FE7D0B1204A8900001ED12EC
:1032D30004867F01229005A2EFF078A37C057D018F
:1032E3007BFF7A3C79E87E007F031204087E007D31
:1032F300007C009005A2E0FF7B017A0579A31231DF
:10330300DF9005A3E0FFE4FCFDFE78081206DDA8CC
:1033130004A905AA06AB07A3E0FFE4FCFDFEEB2F1F
:10332300FFEE3AFEED39FDEC38FC78081206DDA815
:1033330004A905AA06AB07A3E0FFE4FCFDFEEB2FFF
:10334300FFEE3AFEED39FDEC38FC2290058CEBF0F4
:10335300A3EAF0A3E9F090058CE0FBA3E0FAA3E075
:10336300F9900001120447FF12042EFEB507037FF4
:10337300002290058CE0FBA3E0FAA3E02402F9E429
:103383003AFAEE7E0029F9EE3AFA12042EFF90057E
:103393008FE0FBA3E0FAA3E0F9EF12047490058C2D
:1033A300E0FBA3E0FAA3E0F912042E2401FFEE33BD
:1033B300FE7C007D0B1204A8ED1204747F012278B9
:1033C3002F7C027D017BFF7A3C79F87E007F03121C
:1033D3000408E4900232F0FEFDFC7A02792F122FEA
:1033E3004190022FE0FFE4FCFDFE78081206DDA801
:1033F30004A905AA06AB07A3E0FFE4FCFDFEEB2F3F
:10340300FFEE3AFEED39FDEC38FC78081206DDA834
:1034130004A905AA06AB07A3E0FFE4FCFDFEEB2F1E
:10342300FFEE3AFEED39FDEC38FC22900592EBF00D
:10343300A3EAF0A3E9F012042EFFFE9000011204A8
:1034430047B507037F0022900592E0FBA3E0FAA3B0
:10345300E0F99000011204476E6037E92402F9E4B1
:103463003AFAEE7C0029F9EC3AFA12042EFF9005A1
:1034730095E0FBA3E475F001120513A9F0FAEF122E
:103483000474EE2401FFE433FE7D0B1204A8AE05A1
:1034930080B57F0122E4900224F0A3F0A3F0A3F00F
:1034A300A3F0900225F012360F900227EEF0A3EF5F
:1034B300F07F027E007D007C001236F3900226E04E
:1034C30004F0C3900228E09464900227E094005033
:1034D30010900226E094084012E4F0900224F08059
:1034E3000AE4900226F090022404F0900225E004FE
:1034F300F0E0C3940A40AF900224E0FF22900385DA
:10350300EBF0A3EAF0A3E9F0AC05E4A3F0A3F0FF2A
:10351300EFC39C5034900385E0FBA3E0FAA3E0F9EA
:103523008F82758300120447FB900389E02BF09090
:103533000388E03400F0E0FAA3E0FBEA60089003BC
:1035430088E4F0A3EBF00F80C7900388E0FEA3E0CC
:10355300F4FF900388EEF0A3EFF022EFD39407403B
:10356300028051E4F5BDF5BEE5BC54E044084FF5D7
:10357300BC00000000E4FBE5BC30E43353BCEFE5E2
:103583009730E509E5BD5403ADBEFC801DAFBD7C9E
:1035930000AD07ED7E007802C333CE33CED8F9FFFA
:1035A300E5BE5403FDEEFCEF4DFDAF05AE04220B6B
:1035B300EBB4FAC37E047F002212042EF59D900023
:1035C30001120447FFE5BC549F4FF5BC9000021263
:1035D3000447B4010543BC80800353BC7F900003C0
:1035E300120447B4010543972080035397DF9000EB
:1035F30005120447B40104D2AD8002C2AD900004A9
:10360300120447B40103D2BD22C2BD22E4FE7829CD
:103613007C027D017BFF7A3C79F57F03120408E489
:1036230090022CF0FDFC7B017A0279299002377419
:1036330003F07F24122F4B900229E0FEA3E07C00CD
:103643002400FFEC3EFEAD07FCE412027E7BCA7A47
:103653009879F1783C1200661202B722900309EBC5
:10366300F0A3EAF0A3E9F0A3EDF0E4FE7D017F0708
:10367300122CB0E4FE90030CE0FFEEC39F501A90AF
:103683000309E0FBA3E0FAA3E0F98E82758300123D
:103693000447FF123A290E80DC7F1E7E007D007CEA
:1036A300001236F3E4FD7F07022CB0E490023EF0F3
:1036B300A3F090023EF090023FE025E0F0D2A17F1C
:1036C300067E007D007C00123B15C2A1A2A2E4335A
:1036D300FE90023F6006E04401F08002E0F09002B9
:1036E3003EE004F0E0C3940840CC90023FE0FF22A8
:1036F300803A90030DE0FCA3E0FDA3E0FEA3E0FF0E
:10370300EC4D4E4F602E00007F167E80DEFEDFFC08
:1037130090030DE0FCA3E0FDA3E0FEA3E024FFFF84
:10372300EE34FFFEED34FFFDEC34FFFC90030D128D
:10373300075580BE22E4FF0F1239D5EF540125E06F
:10374300FFC007E4FF1239D5EF5401FED0E04EFF6E
:10375300C0077F021239D5EF540325E025E0FED0E0
:10376300E04EFFC0077F031239D5EF5401333333E3
:1037730054F8FED0E04EFF22900224EFF0E47825C7
:103783007C027D017BFF7A3C79BAFE7F0312040839
:10379300900224E0FF7B017A0279251231DFE4FFF6
:1037A30074252FF582E43402F583E0F460037F008F
:1037B300220FEFB403EA7F0122AD07AC06C2AF7557
:1037C300C78175C501ECF5C3AF058FC475C65A75BE
:1037D300C6A500E5C21204740DBD00010C740129D5
:1037E300F9E43AFA90023074FFF5F01204FD45F063
:1037F30070D3123BB1D2AF22AD07AC06C2AF75C7CF
:103803008175C502ECF5C3AF058FC412042EF5C252
:1038130075C65A75C6A5000DBD00010C740129F9C2
:10382300E43AFA90058A74FFF5F01204FD45F0704E
:10383300D3123BB1D2AF229005B2EFF0E4A3F090E4
:1038430005B3E0FF9005B2E0FEA807088002C313AA
:10385300D8FC5401FEEFFDC374079DFDE494008D75
:1038630082F583EE1204869005B3E004F0E0B40819
:10387300CE22EF14600E14601614601D240370270B
:10388300E4FD80037D01E4FF122CB0E4FD8013E42A
:10389300FDFF122CB07D0180097D01E4FF122CB0E5
:1038A3007D017F01122CB022E5A254CF4410F5A272
:1038B3009002237410F0A37408F0E4900228F090AF
:1038C30002257442F0E4A3F0A3F09002297480F07F
:1038D300A3E4F07B017A027923FF0218F09005A696
:1038E300EBF0A3EAF0A3E9F09005A6E0FBA3E0FA6E
:1038F300A3E0F99000011204472401FFE433FE7CA6
:10390300007D0B1204A812042E7F00B505027F016F
:1039130022900330EBF0A3EAF0A3E9F0E4FEEFA872
:1039230006088002C313D8FC5401FD900330E0FB6A
:10393300A3E0FAA3E0F98E82758300ED1204860EEC
:10394300EEB408DA229002237440F0A37402F0A3C9
:103953001207610000258090022A7401F0E4A3F0AD
:10396300A304F0A3F0E4A3F0A3F07B017A0279238C
:103973007F010208219002237440F0A37402F0A394
:103983001207610000258090022A7401F0E4A3F07D
:10399300A304F0E4A3F0A3F0A3F07B017A0279235C
:1039A3007F020208219005AFEBF0A3EAF0A3E9F050
:1039B300E4FEEEC39D501A9005AFE0FBA3E0FAA32B
:1039C300E0F98E82758300120447FF123A510E808C
:1039D300E122E4FEEF14601114601214601314600A
:1039E3001424047015A2B4800EA2B5800AA2B68076
:1039F30006A2B78002A2A4E433FEAF0622E4F50CCC
:103A0300F50DF50E90023EF0A3F0F50DD2A1EF30C7
:103A1300E704D2A38002C2A3EF25E0FFC2A1050DF4
:103A2300E50DB408E722900009E0240EF582E434A2
:103A330001F583EFF0900009E004F0C394804002A5
:103A4300E4F090000AE0700504F0439A022290002B
:103A530002E0240EF582E43400F583EFF0900002D7
:103A6300E004F0C394804002E4F0900003E07004AB
:103A730004F0D29922AB07AA06AE02AF03AD07AC9E
:103A830006E412027EE4FBFA79A07840120066E4B1
:103A9300FBFA7980784412016F2290022374F8F0C4
:103AA300A37420F0A37401F0E4A3F0A3F0A3F07BCC
:103AB300017A0279231235BC7F0102000EAD07ACF7
:103AC30006C2AFECF5C3AF058FC475C78175C503D7
:103AD30075C65A75C6A500123BB1D2AF22E47F0367
:103AE3001239D5EF540125E0FFC0077F021239D503
:103AF300EF5401FED0E04EFF22C2A07FEA123A004B
:103B03007FFA123A007FEA123A007F5A123A00D241
:103B1300A02290024012075590024074FF12072220
:103B2300EC4D4E4F70F2229002237401F0A374788F
:103B3300F07B017A0279237F01021575123B2A1269
:103B4300001E12394812397812003E123A9D023B88
:103B530067900001120447FF12042EB507037F018B
:103B6300227F0022438E805389F0758A9A758CA92F
:103B7300C28DD28CD2A92212042EFF600C123A51AC
:103B8300740129F9E43AFA80EE2212042EFF600C44
:103B9300123A29740129F9E43AFA80EE229005B524
:103BA300EFF0E4F508F509F50AF50BAF0822E4F5A3
:103BB300C7F5C5F5C675C3FF75C4FF2253BCEF3205
:103BC300C2AF22D2AF22B290320000000000000048
:103BD30000000000000000000000000000000000E2
:103BE30000000000000000000000000000000000D2
:103BF30000000000000000000000000000000000C2
:103C030000000000000000000000000000000000B1
:103C130000000000000000000000000000000000A1
:103C23000000000000000000000000000000000091
:103C33000000000000000000000000000000000081
:103C43000000000000000000000000000000000071
:103C53000000000000000000000000000000000061
:103C63000000000000000000000000000000000051
:103C73000000000000000000000000000000000041
:103C83000000000000000000000000000000000031
:103C93000000000000000000000000000000000021
:103CA3000000000000000000000000000000000011
:103CB3000000000000000000000000000000000001
:103CC30000000000000000000000000000000000F1
:103CD30000000000000000000000000000000000E1
:103CE30000000000000000000000000000000000D1
:103CF30000000000000000000000000000000000C1
:073D030000000000000000B9
:00000001FF
